:020000040800F2
:100000000000012091530008414C0008494C0008B1
:10001000514C0008594C0008614C000800000000D9
:10002000000000000000000000000000694C000813
:10003000774C000800000000854C0008934C000835
:10004000E1530008E1530008E1530008E1530008C0
:10005000E1530008E1530008E1530008E1530008B0
:10006000E1530008E1530008E1530008E1530008A0
:10007000E1530008E1530008E1530008E153000890
:10008000E1530008E1530008E153000800000000BC
:10009000000000000000000000000000E153000824
:1000A000E1530008E1530008E1530008E153000860
:1000B000A14C0008E1530008E1530008E153000897
:1000C000E1530008E1530008E1530008E153000840
:1000D000E1530008B54C0008E1530008000000009F
:1000E000E1530008E1530008E1530008000000005C
:1000F000000000000000000000000000E1530008C4
:1001000000000000E1530008014D0008E153000821
:1001100000000000000000000000000000000000DF
:10012000E1530008E1530008154D0008E1530008B1
:10013000E153000800000000000000000000000083
:100140000000000000000000000000003D4D00081D
:10015000E1530008E1530008294D0008E15300086D
:10016000E1530008E1530008000000000000000017
:10017000000000000000000000000000000000007F
:1001800000000000E1530008000000000000000033
:04019000E15300082F
:1001940010B5054C237833B9044B13B10448AFF3BD
:1001A40000800123237010BDA8000020000000007F
:1001B40038DF000808B5034B1BB103490348AFF30C
:1001C400008008BD00000000AC00002038DF0008FB
:1001D40053B94AB9002908BF00281CBF4FF0FF31AA
:1001E4004FF0FF3000F088B9ADF1080C6DE904CE92
:1001F40000F006F8DDF804E0DDE9022304B07047FE
:100204002DE9F047089D8E4604468846002B4AD1C6
:100214008A42174662D9B2FA82F64EB1C6F1200379
:1002240001FA06F820FA03F3B74043EA0808B44099
:100234004FEA174E1FFA87FCB8FBFEF1230C0EFBA6
:10024400118843EA084301FB0CF29A4209D9FB18CE
:1002540001F1FF3080F0EA809A4240F2E7800239EF
:100264003B449A1AA3B2B2FBFEF00EFB102243EAFF
:10027400024300FB0CFC9C4509D9FB1800F1FF323A
:1002840080F0D6809C4540F2D3803B44023840EA5B
:100294000140A3EB0C0300211DB1F3400022C5E98A
:1002A4000032BDE8F0878B4205D90DB1C5E90001E4
:1002B40000210846F5E7B3FA83F1002946D17345D6
:1002C40002D3824200F20581841A6EEB03020120FC
:1002D4009046002DE5D0C5E90048E2E7002A00F089
:1002E4009080B2FA82F6002E40F0A4808A1A030CA1
:1002F4004FEA174E80B2BCB20121B2FBFEFC0EFBEA
:100304001C2243EA024304FB0CF29A4207D9FB186D
:100314000CF1FF3802D29A4200F2E080C4469B1AE4
:10032400B3FBFEF20EFB123340EA034302FB04F478
:100334009C4207D9FB1802F1FF3002D29C4200F222
:10034400CA8002461B1B42EA0C40A5E7C1F1200605
:100354008B4022FA06F71F430EFA01F420FA06F343
:100364002EFA06FE4FEA1749234300FA01F81FFA52
:1003740087FCBEFBF9F01C0C09FB10EE44EA0E44AA
:1003840000FB0CFEA64502FA01F209D93C1900F162
:10039400FF3A80F09C80A64540F2998002383C44A4
:1003A400A4EB0E041FFA83FEB4FBF9F309FB134418
:1003B4004EEA044403FB0CFCA44508D93C1903F1A0
:1003C400FF3E80F08280A4457FD9023B3C4443EA4F
:1003D4000040A4EB0C04A0FB02EC64457346E14628
:1003E40062D35FD05DB1B8EB030264EB090404FA95
:1003F40006F622FA01F31E43CC40C5E9006400214D
:100404004FE7B1FBF2FC010C41EA0E4180B240EA35
:1004140001423B4638463C46B846BE462026B1FB20
:10042400F7F1A2EB080241EA0C4166E7014618E73E
:1004340010462CE7C6F120022EFA02F3B740B14071
:1004440020FA02F24FEA174E0A43B3FBFEF8BCB29D
:100454000EFB1833110C41EA034108FB04F9B040C8
:1004640089454FEA104380B23ED9791808F1FF3C20
:1004740001D289451FD8A1EB0901B1FBFEF909FBA3
:1004840004F80EFB191192B242EA0142424529D204
:10049400BA1809F1FF31C4D24245C2D2A9F102010E
:1004A4003A44BEE7F0459DD2BEEB02036CEB070C69
:1004B4000138E14696E7A7EB09094944A8F1020C83
:1004C400B1FBFEF909FB04F8DBE773467FE750460E
:1004D40066E70846FDE63B44023A33E7ACF1020C1A
:1004E4003B441CE749469CE7A1EB0901C446B1FB28
:1004F400FEF909FB04F8C4E7704700BF80B582B079
:1005040000AF4822002115480DF0DAFC0023FB71EE
:100514000BE0FA79114913465B0013449B000B442A
:1005240000221A70FB790133FB71FB79052BF0D99A
:100534000B4B00221A600B4B01221A70094BAF229D
:100544005A60084B01221A72064B01225A72054B5B
:1005540001229A7200BF0837BD4680BDD00000203A
:1005640018010020C400002080B485B000AF034609
:10057400FB80284B1B7883F00103DBB2002B01D0F6
:10058400002341E0FB881B0B9BB203F00F03002BFD
:1005940001D0002338E0FB88C3F30B03FB81FB8805
:1005A400C3F30B03DF2B06DDFB88C3F30B03E72B3D
:1005B40001DC002328E0174B1B7A002B07D0FB89B2
:1005C400032B04D9FB891D2B01D801231CE0114BFB
:1005D4005B7A002B07D0FB891D2B04D9FB89272BC1
:1005E40001D8012310E00B4B9B7A002B0BD0FB8925
:1005F400312B02DC2D2B03DA04E0333B052B01D82D
:10060400012301E000BF002318461437BD465DF8FE
:10061400047B7047C400002080B584B000AF03465B
:10062400FB710B46BB801346BB71BB881846FFF7B2
:100634009BFF034683F00103DBB2002B01D00023B0
:1006440043E00023FB7323E0FA7B224913465B005B
:1006540013449B000B441B78012B16D1FA7B1D49D4
:1006640013465B0013449B000B4401331B78FA7957
:100674009A420AD0FA7B13465B0013449B00154A46
:1006840013440021184600F08FF9FB7B0133FB7300
:10069400FB7B052BD8D900F04BF9B860BB68002B65
:1006A40001D1002311E0BB6801221A70BB68FA79FA
:1006B4005A70BB68BA885A80BB68BA791A7104F058
:1006C400C5FE0246BB689A60012318461037BD4632
:1006D40080BD00BFD000002090B585B000AF0346B8
:1006E400FB71FB79184600F0EDF8F860FB68002B0D
:1006F40003D0FB681B78002B01D100234DE0FB687D
:100704005B887B81FB681B797B72FB681B783B727F
:100714003B7A032B28D0032B35DC012B02D0022B90
:1007240013D030E00021F86800F03EF9F86800F0DA
:1007340027F91C4B1B68002B29D01A4B1C687B7AA9
:10074400788900220021A04721E0F86800F018F918
:10075400144B1B68002B1CD0124B1C687B7A7889C5
:1007640001220021A04714E0F86800F009F90D4BBC
:100774001B68002B0FD00B4B1C687B7A78890022F6
:100784000021A04707E0F86800F0FAF804E000BF91
:1007940002E000BF00E000BF012318461437BD4645
:1007A40090BD00BF1801002080B584B000AF194B84
:1007B4001B7883F00103DBB2002B26D104F046FE44
:1007C400B8600023FB731CE0FA7B13465B00134400
:1007D4009B00114A13447B607B681B78012B0CD16E
:1007E4007B689B68BA68D21A0A4B5B689A4205D345
:1007F4000121786800F0D8F800E000BFFB7B0133EA
:10080400FB73FB7B052BDFD900E000BF1037BD462F
:1008140080BD00BFC4000020D000002080B582B09D
:1008240000AF0023FB7117E0FA790F4913465B0010
:1008340013449B000B441B78012B0AD1FA7913460D
:100844005B0013449B00084A13440021184600F03F
:10085400ABF8FB790133FB71FB79052BE4D900BFBD
:1008640000BF0837BD4680BDD000002080B584B0ED
:1008740000AF0346FB71FB79184600F023F8F860DB
:10088400FB68002B05D0FB681B78012B01D10123E9
:1008940000E0002303F00103DBB218461037BD4625
:1008A40080BD000080B483B000AF7860044A7B68E8
:1008B400136000BF0C37BD465DF8047B704700BF72
:1008C4001801002080B485B000AF0346FB710023FB
:1008D400FB7320E0FA7B154913465B0013449B002D
:1008E4000B441B78002B13D0FA7B104913465B0092
:1008F40013449B000B4401331B78FA799A4207D1C5
:10090400FA7B13465B0013449B00084A134406E039
:10091400FB7B0133FB73FB7B052BDBD900231846E0
:100924001437BD465DF8047B704700BFD00000203B
:1009340080B483B000AF0023FB7114E0FA790F494F
:1009440013465B0013449B000B441B78002B07D118
:10095400FA7913465B0013449B00084A134406E0EB
:10096400FB790133FB71FB79052BE7D9002318468A
:100974000C37BD465DF8047B704700BFD0000020F3
:1009840080B582B000AF78607B68002B07D00C2262
:10099400002178680DF094FA7B6800221A7000BF79
:1009A4000837BD4680BD000090B583B000AF7860C5
:1009B4000B46FB707B681B78012B15D1FB78002B51
:1009C40001D0022200E003227B681A70084B1B68E6
:1009D400002B0AD0064B1C687B6858887B681B79FF
:1009E400FA780121A04700E000BF0C37BD4690BD56
:1009F4001801002080B485B000AF03460A46FB808E
:100A040013467B717B791BB21B021AB2B7F906300D
:100A140053401BB2FB800023FB7314E0B7F906308C
:100A2400002B0ADAB7F906305B001BB283F481535A
:100A340083F001031BB2FB8002E0FB885B00FB80B8
:100A4400FB7B0133FB73FB7B072BE7D9FB88184641
:100A54001437BD465DF8047B704780B584B000AFA1
:100A6400786039604FF6FF73FB810023BB600DE0B3
:100A74007A68BB6813441A78FB8911461846FFF755
:100A8400B9FF0346FB81BB680133BB60BA683B68AE
:100A94009A42EDD3FB8918461037BD4680BD00004D
:100AA40080B582B000AF00237B60104B1B6B0F4AF4
:100AB40043F4800313630D4B1B6B03F480037B60CF
:100AC4007B68002202213A2004F0A8FD3A2004F0B9
:100AD400C1FD00220221462004F0A0FD462004F0BE
:100AE400B9FD00BF0837BD4680BD00BF00380240D5
:100AF40080B500AF05F010FA0346002B0CBF0123AC
:100B04000023DBB2184680BD80B500AF05F026FA9D
:100B140000BF80BD80B586B000AF3B1D00221A60C7
:100B24005A609A60DA601A610523FB6001233B6115
:100B340002237B6100233B603A463B1D1146184665
:100B440005F05CFB0346002B0CBF01230023DBB242
:100B540018461837BD4680BDB0B586B000AFF86002
:100B6400B9607A6000237B6118E0BA687B6913443A
:100B74001B683B61FA687B69D1183B6900221C46FB
:100B8400154622462B46022005F074F90346002B35
:100B940001D0002307E07B6904337B617A697B68B9
:100BA4009A42E2D3012318461837BD46B0BD80B53A
:100BB40084B000AF78607B680833FB608823BB6037
:100BC400B968F868FFF749FF034618461037BD4671
:100BD40080BD000080B400AF084B094A1A60074B7F
:100BE400084A5A60084B094A1A60074B084A5A6077
:100BF40000BFBD465DF8047B704700BF20020020A3
:100C0400A8DF0008C8DF000828020020E8DF000889
:100C140008E0000880B584B000AF78600023FB735F
:100C24002EE02023BB60FB7B5B01194A9818FB7BF9
:100C34005B0110337A681344BA6819460DF06CF9F5
:100C4400FB7B5B01134A9818FB7B5B0150337A688A
:100C54001344BA6819460DF05FF9FA7BFB7B520125
:100C64000B490A440C4941F82320FA7BFB7B5201CF
:100C740008490A44094941F82320FB7B0133FB73EB
:100C8400FB7B012BCDD900BF00BF1037BD4680BD13
:100C9400A0010020E0010020200200202802002002
:100CA40080B582B000AF164B002283F88020154B2C
:100CB4007B607B681B68144A934203D0FFF78AFF6A
:100CC400002319E07B689B88012B03D0FFF782FF88
:100CD400002311E07868FFF76AFF03467B807B6896
:100CE400DB887A889A4203D0FFF774FF002303E07D
:100CF4007868FFF78FFF012318460837BD4680BD8B
:100D04001C010020000002083412CFDA80B483B042
:100D140000AF0346FB71FB79012B01D9002303E0EB
:100D2400FB79044A52F8233018460C37BD465DF867
:100D3400047B70472002002080B483B000AF0346D8
:100D4400FB71FB79012B01D9002303E0FB79044AF1
:100D540052F8233018460C37BD465DF8047B7047C3
:100D64002802002080B586B000AF03463960FB71CD
:100D7400FB79042B01D9002322E03B68002B01D12D
:100D840000231DE0FA7913461B019B1A5B007B616B
:100D94007B69C3F180033B613B691E2B28BF1E2383
:100DA400FB60094BBB60BA687B691344FA68396815
:100DB40018460DF0B1F8044B012283F8802001237A
:100DC40018461837BD4680BD1C010020B0B5CCB014
:100DD40000AF584B93F8803083F00103DBB2002B53
:100DE40001D00123A1E007F194039022FF211846CA
:100DF4000DF066F8504BC7F894300123A7F89830EB
:100E04000023A7F89C3007F194030A33062200213B
:100E140018460DF055F8474B07F1A4041D460FCDB5
:100E24000FC40FCD0FC40FCD0FC495E80F0084E895
:100E34000F00404B07F1E40403F140050FCD0FC44C
:100E44000FCD0FC40FCD0FC495E80F0084E80F0039
:100E540007F194031846FFF7AAFE0346A7F89A3051
:100E64009023C7F82C31D7F82C3103F00303002B5F
:100E740006D0D7F82C3123F003030433C7F82C3100
:100E84003B469422FF2118460DF01AF807F194010D
:100E94003B46902218460DF03FF8FFF729FE034623
:100EA40083F00103DBB2002B01D000233DE0FFF708
:100EB40031FE034687F82B3197F82B31002B09D0EC
:100EC4003B46D7F82C2119461C48FFF745FE03463C
:100ED40087F82B31FFF718FE97F82B3183F00103C5
:100EE400DBB2002B01D000231FE0144BC7F82431E0
:100EF400D7F824311B68104A934209D1D7F824311A
:100F0400DC88D7F82401FFF752FE03469C4203D045
:100F1400FFF760FE002308E0D7F82401FFF77AFE0C
:100F2400044B002283F880200123184607F59877A4
:100F3400BD46B0BD1C0100203412CFDA0000020807
:100F440080B582B000AFFFF7D3FD034683F0010301
:100F5400DBB2002B01D000230CE0FFF7DBFD0346DE
:100F6400FB71FFF7D1FDFFF735FE044B002283F838
:100F74008020FB7918460837BD4680BD1C0100203F
:100F840080B5A8B000AF03463960FB71FB79042B30
:100F940002D83B68002B01D1002389E0FA7913467B
:100FA4001B019B1A5B00C7F89430D7F89430C3F147
:100FB4008003C7F89030D7F890301E2B28BF1E232B
:100FC400C7F88C3007F10803C7F89C302023C7F812
:100FD4008830002387F89B3026E097F89B30364A08
:100FE40052F82330002B0CD097F89B30324A52F839
:100FF4002330D7F888201946D7F89C000CF08CFFD2
:1010040006E0D7F888200021D7F89C000CF058FFA0
:10101400D7F89C20D7F888301344C7F89C3097F849
:101024009B30013387F89B3097F89B30012BD4D940
:10103400002387F89A3026E097F89A301F4A52F82E
:101044002330002B0CD097F89A301C4A52F82330E6
:10105400D7F888201946D7F89C000CF05DFF06E00D
:10106400D7F888200021D7F89C000CF029FFD7F886
:101074009C20D7F888301344C7F89C3097F89A30EE
:10108400013387F89A3097F89A30012BD4D91E226D
:10109400002138680CF014FF07F10802D7F89430E7
:1010A4001344D7F88C20194638680CF035FF012317
:1010B4001846A037BD4680BD20020020280200202B
:1010C40080B400AF034B93F880301846BD465DF8FA
:1010D400047B70471C01002080B58AB000AF07F183
:1010E400140300221A605A609A60DA601A610023BD
:1010F4003B61444B1B6B434A43F001031363414B75
:101104001B6B03F001033B613B690023FB603D4B18
:101114001B6B3C4A43F0020313633A4B1B6B03F013
:101124000203FB60FB680023BB60364B1B6B354A34
:1011340043F004031363334B1B6B03F00403BB60E2
:10114400BB6800237B602F4B1B6B2E4A43F080034C
:1011540013632C4B1B6B03F080037B607B682A4B6F
:101164001B6A294A23F47043136201220F21274882
:1011740005F0E8FA0F237B610123BB610023FB61C7
:1011840002233B6207F114031946204805F056F97F
:1011940063237B610023BB610123FB6107F114031B
:1011A4001946194805F04AF901224FF4005118482C
:1011B40005F0C8FA4FF400537B610123BB6100239F
:1011C400FB6100233B6207F114031946104805F044
:1011D40035F901224FF440510B4805F0B3FA4FF4AE
:1011E40040537B610123BB610023FB6100233B620D
:1011F40007F114031946044805F020F900BF283705
:10120400BD4680BD00380240000402400000024098
:101214000008024080B500AF0922002117480CF0F5
:101224004FFE0922002116480CF04AFE134B0122FE
:101234001A70134B01221A700222002111480CF07B
:101244003FFE0222002110480CF03AFE0D4B03220F
:101254001A700D4B03221A70032200210B480CF064
:101264002FFE032200210A480CF02AFE074B042219
:101274001A70074B04221A7000BF80BD3002002090
:101284003C020020480200204C02002050020020B2
:101294005402002080B584B000AF786000F07CFB7D
:1012A400034683F00103DBB2002B4DD178680CF0C8
:1012B400D1FA034683F00103DBB2002B46D100F0E0
:1012C40083FBF860234B01221A70FB681A78214BC8
:1012D4005A70204B00229A70FB681B7C002B05D0AF
:1012E400062201211C480CF0EBFD11E0062200212E
:1012F40019480CF0E5FDFB68DB79062B28BF0623B3
:10130400FB72FB680133FA7A194613480CF004FEA9
:10131400092212490F480CF0C3FD0346002B02D1E9
:1013240000F046FB13E00B4978680CF061F90346C2
:10133400BB72BB7A002B0AD1084B064A07CA03C307
:101344001A7000F035FB02E000BF00E000BF103768
:10135400BD4680BD3C0200203F0200203002002038
:1013640080B584B000AF786000F044FB034683F09E
:101374000103DBB2002B2ED178680CF06BFA034624
:1013840083F00103DBB2002B27D1164B03221A7022
:1013940000F024FB03461A46124B5A7002221249EB
:1013A40010480CF07DFD0346002B02D100F02EFB0B
:1013B40014E00C4B5B78194678680CF04DF9034641
:1013C400FB73FB7B002B09D1064B1A88064B1A8052
:1013D40000F01CFB02E000BF00E000BF1037BD4678
:1013E40080BD00BF4C0200204802002080B584B0BC
:1013F40000AF786002F020F9034683F00103DBB20A
:10140400002B3CD178680CF025FA034683F00103E5
:10141400DBB2002B35D102F005F9F8601B4B042236
:101424001A70FB681B7A002B02D0FB681B8800E053
:101434000023164AA2F801300322154913480CF080
:101444002FFD0346002B02D102F002F91AE00F4BE4
:10145400B3F801309BB2194678680CF043F903469F
:10146400FB72FB7A002B0DD1094B084A1268114616
:1014740019800233120C1A7002F0EAF802E000BF7D
:1014840000E000BF1037BD4680BD00BF54020020FD
:101494005002002080B582B000AF78607868FFF712
:1014A400F9FE7868FFF75CFF7868FFF79FFF00BFDD
:1014B4000837BD4680BD000080B500AF094B0A4A1D
:1014C4001A60084B06225A60064B4FF47A629A60FF
:1014D400044805F050F90346002B01D001F062FDE9
:1014E40000BF80BD580200200030004080B483B0AB
:1014F40000AF0346FB71FB79802B09D9FB79832B61
:1015040006D8FB79813B012202FA03F3DBB200E047
:10151400002318460C37BD465DF8047B7047000075
:1015240090B583B000AF1422002138480CF0C8FCF9
:101534002022002136480CF0C3FC2022002135482B
:101544000CF0BEFC0822002133480CF0B9FC202228
:10155400002132480CF0B4FC4022002130480CF049
:10156400AFFC304B00221A702F4B00221A702F4B05
:1015740000221A702E4B00221A7000237B600CE0AC
:101584002C4A7B68002142F823102B4A7B680021F7
:1015940042F823107B6801337B607B680F2BEFDDFF
:1015A4000023FB7014E0FC78FB781846FFF7AEFBD1
:1015B4000346204A42F82430FC78FB781846FFF7AB
:1015C400BBFB03461C4A42F82430FB780133FB7012
:1015D400FB78012BE7D90D4B00225A720B4B0122E9
:1015E400DA6000F05DFA01F035F903F037FC1348D6
:1015F40003F04EFCFEF782FF1148FFF753F901F0A8
:1016040081FF00BF0C37BD4690BD00BF64020020BF
:10161400F8020020180300203C03002048030020A7
:10162400680300203803002044030020390300200D
:101634003A03002078020020B80200203123000879
:101644009523000880B584B000AF78607B68002BD8
:1016540000F0A9807B685B78032B00F2A6807B688E
:101664009B78032B00F2A1807B685B789B00DAB245
:101674007B689B781344FB737B68DB78012B4BD12D
:10168400FB7B1846FFF7F2F8034683F00103DBB255
:10169400002B01D0FFF7C2F8FB7B184603F0C2FC15
:1016A400034683F00103DBB2002B01D003F090FC6E
:1016B4007B685A787B689B781946104600F04EFA8E
:1016C4000346BB81FB7B4149BA8921F81320BB89BE
:1016D400002B6CD0BB89B3F5704F68D0BB891B0B52
:1016E4009BB203F00F03052B06D1FB7BB8890022C4
:1016F400012100F0BBFA65E0B989FB7B00221846A2
:10170400FEF78AFF0346002B53D1FB7BB8890022E6
:10171400012100F0ABFA55E0FB7B2C4A32F8133080
:10172400BB81FB7B294A002122F81310BB89002BC3
:1017340041D0BB89B3F5704F3DD0BB891B0B9BB225
:1017440003F00F03052B20D1FB7B184603F0DEFBCF
:101754000346002B31D1FB7B0F2B30D8FB7B1C4A7B
:1017640032F81330002B2AD0FB7B194A32F813309D
:101774007B81FB7B164A002122F81310FB7B7889BE
:101784000022002100F072FA19E0FB7B1846FEF7F4
:10179400A3FF0346002B14D1FB7BB8890022002150
:1017A40000F064FA0EE000BF0CE000BF0AE000BFE6
:1017B40008E000BF06E000BF04E000BF02E000BF95
:1017C40000E000BF1037BD4680BD00BFF802002016
:1017D4004803002080B584B000AF78607B68002B9C
:1017E40000F0A9807B685B78032B00F2A6807B68FD
:1017F4009B78032B00F2A1807B685B789B00DAB2B4
:101804007B689B781344FB737B68DB78012B4BD19B
:10181400FB7B1846FFF72AF8034683F00103DBB28B
:10182400002B01D0FEF7FAFFFB7B184603F0FAFB0E
:10183400034683F00103DBB2002B01D003F0C8FBA5
:101844007B685A787B689B781946104600F0CAF981
:101854000346BB81FB7B4149BA8921F81320BB892C
:10186400002B6CD0BB89B3F5704F68D0BB891B0BC0
:101874009BB203F00F03052B06D1FB7BB889012231
:10188400012100F0F3F965E0B989FB7B01221846D8
:10189400FEF7C2FE0346002B53D1FB7BB88901221D
:1018A400012100F0E3F955E0FB7B2C4A32F81330B8
:1018B400BB81FB7B294A002122F81310BB89002B32
:1018C40041D0BB89B3F5704F3DD0BB891B0B9BB294
:1018D40003F00F03052B20D1FB7B184603F016FB06
:1018E4000346002B31D1FB7B0F2B30D8FB7B1C4AEA
:1018F40032F81330002B2AD0FB7B194A32F813300C
:101904007B81FB7B164A002122F81310FB7B78892C
:101914000122002100F0AAF919E0FB7B1846FEF72A
:10192400DBFE0346002B14D1FB7BB8890122002186
:1019340000F09CF90EE000BF0CE000BF0AE000BF1D
:1019440008E000BF06E000BF04E000BF02E000BF03
:1019540000E000BF1037BD4680BD00BF1803002063
:101964004803002080B582B000AF03460A46FB80DE
:1019740013467B71FB88002B0AD0FB88B3F5704FAC
:1019840006D07979F888FF23002200F06FF900E08F
:1019940000BF0837BD4680BD80B400AF034B1B7A3F
:1019A4001846BD465DF8047B704700BF6402002002
:1019B40080B400AF034B00221A7200BFBD465DF82D
:1019C400047B70476402002080B400AF024B1846C9
:1019D400BD465DF8047B70476402002080B400AF0C
:1019E400034B1B781846BD465DF8047B704700BF67
:1019F4003903002080B400AF034B1B781846BD4662
:101A04005DF8047B704700BF3A03002080B400AF48
:101A1400034B00221A7000BFBD465DF8047B70477B
:101A24003A03002080B584B000AF03F00FFDB86026
:101A34000023FB732AE0FB7B1B01184A13447B60E1
:101A44007B681B78012B02D0032B0AD01BE07B6838
:101A54005B68BA68D31AC72B12D97B6802221A7042
:101A64000EE07B689B68BA68D31AC72B0AD97B68D7
:101A74005B78184600F0B4FD786800F085FD01E05D
:101A840000BF00E000BFFB7B0133FB73FB7B032B38
:101A9400D1D900BF00BF1037BD4680BD6803002008
:101AA40080B483B000AF154B00221A700023FB7181
:101AB40013E0FB79124A52F82330002B05D1FB794D
:101AC400104A52F82330002B04D0FB790133DAB2E8
:101AD4000A4B1A70FB790133FB71FB790F2BE8D9A0
:101AE400064B1B78002B02D1044B01221A7000BF55
:101AF4000C37BD465DF8047B704700BF45030020EA
:101B040078020020B802002080B483B000AF114BEB
:101B140000225A72104B1B78013B7B6010E00D4B86
:101B2400DA687B6822FA03F303F00103002B04D084
:101B34007B68DAB2074B5A7206E07B68013B7B6034
:101B44007B68002BEBDC00BF00BF0C37BD465DF8A3
:101B5400047B7047640200204503002080B485B0F4
:101B640000AF03460A46FB711346BB711A4B1B7840
:101B7400013BFB6026E0194BDA68FB6822FA03F3A9
:101B840003F00103002B17D0154AFB6852F82330E9
:101B9400002B13D0124AFB6852F82320FB799900DA
:101BA400BB790B445B0013441B887B817B89B3F5B1
:101BB400704F04D07B8909E000BF00E000BFFB68E0
:101BC400013BFB60FB68002BD5DA00231846143771
:101BD400BD465DF8047B7047450300206402002085
:101BE4007802002080B485B000AF03460A46FB713A
:101BF4001346BB711A4B1B78013BFB6026E0194B63
:101C0400DA68FB6822FA03F303F00103002B17D010
:101C1400154AFB6852F82330002B13D0124AFB6894
:101C240052F82320FB799900BB790B445B001344E1
:101C34001B887B817B89B3F5704F04D07B8909E0D5
:101C440000BF00E000BFFB68013BFB60FB68002BAA
:101C5400D5DA002318461437BD465DF8047B704777
:101C64004503002064020020B802002090B585B02E
:101C740000AF0446084611461A462346FB80034635
:101C84007B710B463B711346FB70FB881B0B9BB2AD
:101C9400DBB203F00F03FB73FB7B062B3DD801A2E1
:101CA40052F823F0C51C0008D31C00081F1D0008AF
:101CB400E11C0008EF1C0008FD1C00080B1D0008B7
:101CC4007A79FB881146184600F02EF826E0FA7857
:101CD4007979FB88184600F075F81FE07A79FB885B
:101CE4001146184600F088F918E07A79FB88114605
:101CF400184600F097F911E03B79FA787979F88879
:101D040000F0CAF90AE07A79FB881146184601F016
:101D140005FC044B01221A7200E000BF00BF143717
:101D2400BD4690BD6402002080B584B000AF034678
:101D34000A46FB8013467B71FB88C3F30B03FB81CC
:101D4400FB88C3F30B03DF2B28DDFB88C3F30B03F2
:101D5400E72B23DCFB88C3F30B03E03B012202FAED
:101D640003F37B737B79012B07D1154B1A787B7BAB
:101D74001343DAB2124B1A700BE0114B1B785AB2B0
:101D840097F90D30DB435BB213405BB2DAB20C4B14
:101D94001A700B4B01221A7200BF0DE07B79012BE4
:101DA40005D1FB89DBB2184600F094F904E0FB8905
:101DB400DBB2184600F0F8F900BF1037BD4680BD0D
:101DC4006402002080B588B000AF0346FB800B4658
:101DD4007B7113463B71FB881B12DBB203F00F03CC
:101DE400FB77FB881B11DBB203F00F03BB77BB7FD0
:101DF4000F2B00F2FA80FB7F032B00F2EE8001A28E
:101E040052F823F0191E0008551E00087D1E000814
:101E1400931E00087B79012B09D1764BDA68BB7FCE
:101E2400012101FA03F31343724AD36009E0714BB1
:101E3400DA68BB7F012101FA03F3DB4313406D4AE7
:101E4400D3606C4BDB6843F001036A4AD360C9E09A
:101E54007B79012B40F0C380664BDA68BB7F01219C
:101E640001FA03F35340634AD360624BDB6843F0E7
:101E74000103604AD360B2E07B79012B40F0B1806A
:101E8400BB7F012202FA03F35A4AD360A9E07B79AB
:101E9400012B4AD1BB7F184600F0FCFA38613B693C
:101EA400002B0BD03B691B78052B07D1BB7F184651
:101EB40000F096FB386900F067FB93E03B69002B68
:101EC4000AD03B691B78032B06D13B6904221A70A4
:101ED4003B693A791A7385E000F034FBF860FB68DB
:101EE400002B0FD1434BDA68BB7F012101FA03F3C6
:101EF4001343404AD3603F4BDB6843F001033D4A40
:101F0400D3606FE0FB6801221A70FB68BA7F5A70D5
:101F140003F09CFA0246FB685A60FB683A791A732C
:101F2400BB7F184600F040FB5CE03B79184600F0AC
:101F3400DDFAB861BB69002B10D12E4BDA68BB7F88
:101F4400012101FA03F3DB4313402A4AD360294BEE
:101F5400DB6843F00103274AD36043E0BB691B7885
:101F6400013B042B33D801A252F823F0851F00084B
:101F7400BB1F0008DB1F0008CB1F0008DB1F000885
:101F840003F064FA0246BB695B68D31A7B617B6920
:101F9400C72B08D8BB6903221A7003F057FA02460C
:101FA400BB699A6018E0BB7F184600F019FBB8695A
:101FB40000F0EAFA10E0BB7F184600F011FBB869A4
:101FC40000F0E2FA08E0BB6905221A7004E0B8697F
:101FD40000F0DAFA00E000BF04E000BF02E000BF56
:101FE40000E000BFFFF790FD00E000BF2037BD46D2
:101FF40080BD00BF6402002080B584B000AF0346FA
:102004000A46FB8013467B717B79012B06D1FB8842
:10201400FB73FB7B184600F033FC00E000BF103775
:10202400BD4680BD80B584B000AF03460A46FB8040
:1020340013467B71FB88FB737B79012B0CD1FB7BF3
:102044001846FFF753FA03461A46104B1B781343FE
:10205400DAB20E4B1A700EE0FB7B1846FFF746FA15
:102064000346DB435AB2094B1B785BB213405BB2A5
:10207400DAB2064B1A70064B01221A70054B012284
:102084001A7200BF1037BD4680BD00BF390300205F
:102094003A0300206402002090B585B000AF0446E6
:1020A400084611461A462346FB8003467B710B46BD
:1020B4003B711346FB70FB88FB737B79012B05D1C5
:1020C400FA78F97B3B79184602F0F2FE00BF143728
:1020D400BD4690BD80B485B000AF0346FB710023BC
:1020E400FB7309E0FB7B2C4A13445B78FA799A4230
:1020F40049D0FB7B0133FB73274BDB79FA7B9A4294
:10210400F0D30023BB7308E0BB7B244AD35CFA7989
:102114009A423AD0BB7B0133BB73214B1B78BA7B09
:102124009A42F1D31C4BDB79052B0BD81A4BDB7984
:102134005A1CD1B2184AD1711A46174B1344FA7972
:102144005A7013E0164B1B78072B0FD8144B1B78CF
:102154005A1CD1B2124A11701946104AFB795354D1
:10216400104B1B780133DAB20E4B1A700D4B1B78EF
:10217400002B14BF01230023DAB2074B1A74064B59
:1021840001221A7202E000BF00E000BF1437BD460E
:102194005DF8047B704700BF640200203C0300200C
:1021A400440300203803002080B485B000AF034608
:1021B400FB710023FB736AE0FB7B584A13445B7892
:1021C400FA799A4260D1FB7BBB730CE0BB7B5A1C4F
:1021D400BB7B52490A445178504A13440A465A7008
:1021E400BB7B0133BB73BA7B4C4BDB79013B9A421B
:1021F400ECD34A4BDB79013BDAB2484BDA71474BFB
:10220400DB791A46454B134400225A70444B1B7821
:10221400002B2CD0434B1B78BB7200237B7309E04B
:102224007B7B5A1C7B7B3F49895C3E4AD1547B7B38
:1022340001337B737A7B3A4B1B78013B9A42EFD391
:10224400374B1B78013BDAB2354B1A70364B1B788F
:10225400013BDAB2344B1A70304BDB795A1CD1B2E1
:102264002E4AD1711A462D4B1344BA7A5A702E4B0A
:102274001B78002B14BF01230023DAB2274B1A74F6
:10228400264B01221A7244E0FB7B0133FB73234B80
:10229400DB79FA7B9A428FD300233B7334E03B7B98
:1022A400204AD35CFA799A422BD13B7BFB7209E03A
:1022B400FB7A5A1CFB7A1B49895C1A4AD154FB7A73
:1022C4000133FB72FA7A164B1B78013B9A42EFD327
:1022D400134B1B78013BDAB2114B1A70124B1B786B
:1022E400013BDAB2104B1A700F4B1B78002B14BF52
:1022F40001230023DAB2094B1A74084B01221A7223
:1023040007E03B7B01333B73054B1B783A7B9A42D6
:10231400C5D31437BD465DF8047B704764020020C2
:10232400440300203C0300203803002080B584B01F
:1023340000AF0346FB800B467B7113463B717B79F0
:10234400012B0CD102F08AFE0346BB73BB7B0F2B1F
:1023540011D8BB7B0D49FA8821F813200BE002F059
:102364007DFE0346FB73FB7B0F2B04D8FB7B074AE4
:10237400002122F813103A797979F888FF23FFF7BE
:1023840075FC00BF1037BD4680BD00BF4803002068
:1023940090B585B000AF0446084611461A46234658
:1023A400FB8003467B710B463B711346FB703B7904
:1023B400002B5ED07B79012B0FD1334B1B7843F07C
:1023C4000203DAB2304B1A702F4B01221A72FB88C7
:1023D40001211846FFF7A8FC51E0FB8800211846AC
:1023E400FFF7A2FC0023FB730023BB7310E0BB7B4D
:1023F400264A32F813307B817B89E12B02D07B891A
:10240400E12B02D10123FB7305E0BB7B0133BB73DA
:10241400BB7B0F2BEBD9FB7B83F00103DBB2002BDF
:1024240016D000237B7310E07B7B194A32F81330FB
:102434003B813B89E12B02D03B89E12B02D1012373
:10244400FB7305E07B7B01337B737B7B0F2BEBD929
:10245400FB7B83F00103DBB2002B06D00A4B1B7815
:1024640023F00203DAB2084B1A70074B01221A72E6
:1024740005E07A79FB8811461846FFF755FC00BF42
:102484001437BD4690BD00BF64020020F80200204E
:102494001803002080B485B000AF0346FB7100230D
:1024A400FB7317E0FB7B104A1B0113441B78002BC2
:1024B4000DD0FB7B0C4A1B01134401331B78FA79C2
:1024C4009A4204D1FB7B1B01074A134406E0FB7BC1
:1024D4000133FB73FB7B032BE4D900231846143729
:1024E400BD465DF8047B70476803002080B485B066
:1024F40000AF0346FB710023FB7317E0FB7B104A1C
:102504001B0113441B78002B0DD0FB7B0C4A1B01D1
:1025140013440C331B78FA799A4204D1FB7B1B01D8
:10252400074A134406E0FB7B0133FB73FB7B032B5D
:10253400E4D9002318461437BD465DF8047B704780
:102544006803002080B483B000AF0023FB710EE069
:10255400FB790C4A1B0113441B78002B04D1FB7933
:102564001B01084A134406E0FB790133FB71FB7934
:10257400032BEDD9002318460C37BD465DF8047BC8
:10258400704700BF6803002080B582B000AF786058
:102594007B68002B04D01022002178680BF090FC9B
:1025A40000BF0837BD4680BD80B582B000AF03468A
:1025B400FB710A4BDA68FB79012101FA03F3134337
:1025C400064AD360054BDB6843F00103034AD3603A
:1025D400FFF79AFA00BF0837BD4680BD64020020A9
:1025E40080B582B000AF0346FB710B4BDA68FB7910
:1025F400012101FA03F3DB431340074AD360064B7E
:10260400DB6843F00103044AD360FFF77DFA00BF9F
:102614000837BD4680BD00BF6402002080B582B08B
:1026240000AF78600B467B8013467B707B7883F029
:102634000103DBB21A467B881946786804F082F8F5
:1026440000BF0837BD4680BD80B500AF1022002111
:1026540010480BF035FC0F4B00221A7002F0F6FE06
:1026640003460C4A53600B4B00221A7200224FF4AB
:1026740000510948FFF7D2FF00224FF48051074868
:10268400FFF7CCFF00224FF400510448FFF7C6FFC8
:1026940000BF80BDA80300200008024000040240DF
:1026A40080B582B000AF0346FB710A4B1B78FA7900
:1026B4009A420BD0074AFB79137002F0C7FE034617
:1026C400044A5360034B00221A7200E000BF08372B
:1026D400BD4680BDA803002080B483B000AF03468C
:1026E400FB71FB7903F01F03DAB2044B5A7200BF8B
:1026F4000C37BD465DF8047B704700BFA80300207B
:1027040080B400AF034B5B7A1846BD465DF8047B8A
:10271400704700BFA803002080B483B000AF786086
:10272400044A7B68D36000BF0C37BD465DF8047B68
:10273400704700BFA803002080B582B000AF02F04C
:1027440085FE78603F4B1B78022B2DD0022B4BDC8F
:10275400002B02D0012B07D046E000224FF4005199
:102764003948FFF75BFF46E0364B5B687A68D31A5B
:10277400F92B09D9334A7B685360324B1B7A83F0B7
:102784000103DAB22F4B1A722E4B1B7A03F00103AA
:10279400002B14BF01230023DBB21A464FF400516F
:1027A4002948FFF73BFF26E0264B5B687A68D31A7B
:1027B4007C2B09D9234A7B685360224B1B7A83F014
:1027C4000103DAB21F4B1A721E4B1B7A03F001038A
:1027D400002B14BF01230023DBB21A464FF400512F
:1027E4001948FFF71BFF06E000224FF4005116487A
:1027F400FFF714FF00BF154B1B78002B1DD1114BA5
:10280400DB68012B8CBF01230023FB70FB781A4685
:102814004FF480510E48FFF701FF0A4B5B7A03F037
:102824000203002B14BF01230023BB70BB781A469C
:102834004FF400510648FFF7F1FE00BF0837BD46CC
:1028440080BD00BFA8030020000802400000002053
:102854000004024080B500AF42F220020021064885
:102864000BF02EFB1022002104480BF029FB034B34
:1028740000221A7000BF80BDB8030020D8230020B6
:1028840080B483B000AF0346FB71FB791F2B1DD8C6
:10289400FA79124913461B0213440B4403F580735F
:1028A4001B78002B14D00E4AFB7953700C4B00227A
:1028B4009A700B4B01221A70094B00221A73084BB1
:1028C40000229A60064B00225A6002E000BF00E03A
:1028D40000BF0C37BD465DF8047B7047B803002089
:1028E400D823002080B586B000AF654B1B78002B41
:1028F40000F0C080624B5B781A4613461B021344F7
:10290400604A13447B615E4B1B78022B15D102F0A5
:102914009DFD02465A4B5B68D31A3B61584B9B683A
:102924003A699A42C0F0A880554B9B780133DAB2D9
:10293400534B9A70524B01221A70514B1B7B002B44
:1029440000F08D804E4B9B78002B16D04C4B9B781F
:10295400013B9B007A691344FB60FB685B781BB204
:102964001B021AB2FB689B781BB213431BB27B8118
:102974007B890021184600F003F9414B00221A73A9
:102984006DE03F4B9B789B007A6913447B607B68C6
:102994005B781BB21B021AB27B689B781BB2134391
:1029A4001BB27B807B681B78042B51D801A252F8A0
:1029B40023F000BFCD290008D5290008ED2900081F
:1029C400052A0008232A00082D4B00221A7054E01F
:1029D4007B880121184600F0D3F8294B9B780133FA
:1029E400DAB2274B9A703AE07B880021184600F04F
:1029F400C7F8234B9B780133DAB2214B9A702EE04F
:102A04007B880121184600F0BBF81D4B9B780133ED
:102A1400DAB21B4B9A701A4B01221A732DE07B68B1
:102A2400DB78002B0DD0164B02221A7002F00EFD3B
:102A34000346134A53607B68DB781A46104B9A604E
:102A44001BE00F4B9B780133DAB20D4B9A7006E012
:102A54000B4B9B780133DAB2094B9A7000BF084BD9
:102A64009A787B6993F800319A428AD3044B002206
:102A74001A7002E000BF00E000BF1837BD4680BDF9
:102A8400D8230020B803002080B400AF054B1B7886
:102A9400002B14BF01230023DBB21846BD465DF8AA
:102AA400047B7047D823002080B584B000AF034670
:102AB4003960FB711346BB71FB791F2B01D90023CD
:102AC40028E0BB79402B01D9002323E03B68002B8D
:102AD40004D1BB79002B01D000231BE0FA79134603
:102AE4001B0213440D4A1344FB6040F201120021FF
:102AF400F8680BF0E5F9BB79002B06D0F868BB79D0
:102B04009B001A4639680BF007FAFB68BA7983F818
:102B14000021012318461037BD4680BDB8030020AC
:102B240080B586B000AF0346B9607A60FB73FB7B67
:102B34001F2B01D900231DE0BB68002B02D07B684A
:102B4400002B01D1002315E0FA7B13461B0213442A
:102B54000A4A13447B617B6993F800217B681A70ED
:102B640079697B6993F800319B001A46B8680BF0C9
:102B7400D3F9012318461837BD4680BDB803002099
:102B840080B582B000AF03460A46FB8013467B71D2
:102B94007A79FB8811461846FEF7E4FE00BF083731
:102BA400BD4680BD80B582B000AF254B5B6B244A27
:102BB40043F08003536300233B60214B5B6C204A4A
:102BC40043F4804353641E4B5B6C03F480433B60CB
:102BD4003B680A2002F046FC0023FB710023BB7112
:102BE4000FE04FF0A0431B6803F40023002B02D036
:102BF400FB790133FB71012002F034FCBB79013312
:102C0400BB71BB79022BECD9FB79032B02D10023D6
:102C14007B7107E0FB79002B02D101237B7101E07A
:102C240000237B717B79012B05D1054B5B6B044A37
:102C340023F0800353637B7918460837BD4680BD73
:102C44000038024080B588B000AF02F0C9FB00F044
:102C540023F902F08DF8FFF7A5FF03461A46524BFD
:102C64001A70FEF739FAFDF71BFF02F03BFA02F087
:102C7400ABFA00F0BBF9FFF7E7FC4B4B1B78002BDA
:102C840001D1FEF70DF801F031F800F003FDFEF775
:102C940013FC454B1B78002B05D10AF09FF9FEF776
:102CA4003FFCFEF7B7FA414805F0EAFC00F0C2F831
:102CB4003F4803F0A4FD01F083F83B4B1B78002B45
:102CC40068D13C480AF0E6FD0346FB770AE0FB7F47
:102CD400002B02D000F070F804E007F1100318464E
:102CE400FEF7B0FC07F11003184600F02BFA034678
:102CF400002BECD10AE0FB7F002B02D000F05CF843
:102D040004E007F108031846FEF764FD07F1080321
:102D1400184601F0BDF80346002BECD1FFF7E2FDA5
:102D240002F064F9FDF740FDFEF77CFEFB7F83F0C3
:102D34000103DBB2002B05D01E48FEF7ABFB1D4898
:102D440000F0B0FC01F098F80346012B0ED1FB7F94
:102D540083F00103DBB2002B08D0164B93F89C32AE
:102D6400DBB2032B02D00220FFF79AFCFEF72CFE05
:102D7400B861BB69DB681846FFF7CEFC11E03A780E
:102D8400FB78012B01D1012300E0002319461046F2
:102D940001F058F83B46184600F0D4F90346002BDE
:102DA400EDD1FFF7C9FC83E700000020842A00204E
:102DB40058020020DC2B002080B582B000AF1B48F5
:102DC4000AF068FD034683F00103DBB2002B03D055
:102DD400174B00221A7025E0154B1B78002B1ED1CF
:102DE400124BD3F8C8327B607B68002B19D00F4B91
:102DF40093F89C32DBB2042B14D10C4BD3F8A432DD
:102E0400012B0FD1786804F026FD0A2002F02AFB7A
:102E1400786804F02EFD064B01221A7002E000BF10
:102E240000E000BF0837BD4680BD00BFDC2B00209A
:102E3400E823002080B582B000AF154B1B78002B2F
:102E440001D1022300E00423BB710023FB7114E0D1
:102E540000224FF400510F4803F074FC642002F088
:102E640001FB01224FF400510A4803F06BFC64207B
:102E740002F0F8FAFB790133FB71FA79BB799A42D3
:102E8400E6D3C82002F0EEFA00BF0837BD4680BD85
:102E9400000000200008024080B594B000AF07F1A4
:102EA40020033022002118460BF00AF807F10C0326
:102EB40000221A605A609A60DA601A610023BB60CB
:102EC400294B1B6C284A43F080531364264B1B6C1C
:102ED40003F08053BB60BB6800237B60234B1B68FB
:102EE40023F44043214A43F4004313601F4B1B68FF
:102EF40003F440437B607B6801233B624FF48033DF
:102F04007B620223BB634FF48003FB6319233B649E
:102F14004FF4A8737B640423BB640723FB6407F1A9
:102F24002003184604F0D2FE0346002B01D000F023
:102F340039F80F23FB6002233B6100237B614FF4CC
:102F44008053BB610023FB6107F10C030221184687
:102F540005F034F90346002B01D000F023F800BF3C
:102F64005037BD4680BD00BF0038024000700040AD
:102F740080B582B000AF78607B681B68084A9342D2
:102F840001D102F04FFA7B681B68B3F1804F03D183
:102F940000F0A2F800F090F800BF0837BD4680BDED
:102FA400000C004080B400AF72B600BF00BFFDE764
:102FB40080B483B000AF0B4B1B680B4AA2FB032306
:102FC4009B0C5B007B6002E07B68013B7B607B6861
:102FD400002BF9D100BF00BF0C37BD465DF8047B60
:102FE400704700BF0400002083DE1B4380B582B01D
:102FF40000AF502200212E480AF062FF4FF4827283
:1030040000212C480AF05CFF0023FB713BE0002305
:10301400BB7129E0FA79BB79254992001344023344
:10302400002201F82320FA79BB7921499200134444
:1030340002339B000B4400225A70FA79BB791C4975
:103044009200134402339B000B4400229A70FA79D5
:10305400BB7917499200134402339B000B440022AE
:10306400DA70BB790133BB71BB79032BD2D9FB79FD
:103074000F4A0021D154FB790D4A134400221A71DE
:10308400FB790133FB71FB79032BC0D900237B71DE
:1030940006E07B79184600F0E1F87B7901337B7117
:1030A4007B79032BF5D900BF00BF0837BD4680BD2F
:1030B400EC2300203C24002080B500AF00F0FAF897
:1030C40000F01CF9034BDB6C0133024AD36400BFEC
:1030D40080BD00BFEC23002080B483B000AF002388
:1030E400FB7122E00023BB7119E0FA79BB799200ED
:1030F400134402339B00124A13443B603B681B7821
:10310400012B09D13B685B78002B05D03B685B78C9
:10311400013BDAB23B685A70BB790133BB71BB79AE
:10312400032BE2D9FB790133FB71FB79032BD9D94A
:1031340000BF00BF0C37BD465DF8047B704700BF7D
:10314400EC23002090B486B000AF78607B68002B3D
:1031540001D1002339E0EFF310833B613B697B61CC
:1031640072B600BF1B4B93F80231002B07D17B6969
:10317400FB60FB6883F3108800BF002325E0154B38
:1031840093F800317968134A0C46DB00134493E842
:10319400030084E803000F4B93F800310133DBB2E2
:1031A40003F01F03DAB20B4B83F80021094B93F8A9
:1031B4000231013BDAB2074B83F802217B69BB6021
:1031C400BB6883F3108800BF012318461837BD4637
:1031D40090BC70473C24002080B483B000AF034609
:1031E4000A46FB711346BB71FB799B00DAB2BB79CB
:1031F4001344DBB218460C37BD465DF8047B7047B8
:1032040080B483B000AF0023FB71124B1B693B6099
:103214000023BB7113E0BB790F4A32F813301A460E
:103224003B681340002B07D1BB79012202FA03F358
:10323400DAB2FB791343FB71BB790133BB71BB7900
:10324400032BE8D9FB7918460C37BD465DF8047B9F
:10325400704700BF0004024030E0000880B483B02F
:1032640000AF0346FB71FB79054A32F81320054B86
:103274009A6100BF0C37BD465DF8047B704700BF00
:1032840028E000080000024080B483B000AF034689
:10329400FB71FB79054A32F81330054A1B0493612C
:1032A40000BF0C37BD465DF8047B704728E000087A
:1032B4000000024090B583B000AF0023FB7113E01F
:1032C400FB791846FFF7E0FFFFF772FEFC79FFF782
:1032D40097FF03461A46084B1A55FB791846FFF721
:1032E400BDFFFB790133FB71FB79032BE8D900BFE8
:1032F40000BF0C37BD4690BDEC23002080B584B0E0
:1033040000AF524B002283F848200023FB7394E063
:103314000023BB738AE0FA7BBB7B92001344023325
:103324009B004A4A1344BB60FB7B484AD35C1A4661
:10333400BB7B42FA03F303F00103002B14BF012308
:103344000023FB71BB681B78002B0ED1BB689B78F4
:10335400FA799A4267D0BB6801221A70BB68FA797D
:10336400DA70BB6805225A705DE0BB689B78FA7915
:103374009A4206D1BB6800221A70BB6800225A70B8
:1033840051E0BB685B78002B42D1BB68DB78FA79EB
:103394009A4236D1BB68FA799A70BB6800221A70D7
:1033A400FB79002B10D0FB7B284A13441979BB7B93
:1033B400012202FA03F3DAB2FB7B0A43D1B2234AB5
:1033C40013440A461A7111E0FB7B204A134419790D
:1033D400BB7B012202FA03F3DBB2DB43DAB2FB7BF1
:1033E4000A40D1B2194A13440A461A71174B0122F2
:1033F40083F84820FA79B97BFB7B184600F028F85B
:1034040011E0BB68FA79DA70BB6805225A700AE0E9
:10341400BB68DB78FA799A4205D0BB68FA79DA702E
:10342400BB6805225A70BB7B0133BB73BB7B032B88
:103434007FF671AFFB7B0133FB73FB7B032B7FF6C2
:1034440067AF00BF00BF1037BD4680BDEC2300202E
:1034540080B584B000AF0346FB710B46BB711346C5
:103464007B71FB797B72BB79BB72BA79FB791146AC
:103474001846FFF7B1FE03463B727B79FB7201F0FD
:10348400E5FF0346FB6007F10803184600F004F863
:1034940000BF1037BD4680BD80B483B000AF7860F4
:1034A400174B93F802311F2B01D9002322E0144B50
:1034B40093F80131124A7968DB0013440A4692E812
:1034C400030083E803000E4B93F801310133DBB2B0
:1034D40003F01F03DAB20A4B83F80121BFF35F8FB5
:1034E40000BF074B93F802310133DAB2044B83F87F
:1034F4000221012318460C37BD465DF8047B704752
:103504003C24002080B500AF0A22002102480AF0C2
:10351400D7FC00BF80BD00BF4025002080B485B02B
:1035240000AF03460A46FB8013467B71FB881B0BE6
:103534009BB203F00F03062B67D1FB88C3F30B0385
:103544007B817B89002B62D07B79012B24D10023E2
:10355400FB7309E0FB7B324A32F813307A899A42D2
:1035640057D0FB7B0133FB732D4B1B7AFA7B9A42BA
:10357400F0D32B4B1B7A032B4CD8294B1B7A5A1CA8
:10358400D1B2274A11721946254A7B8922F8113093
:10359400234B01225A723DE00023BB732FE0BB7B17
:1035A4001F4A32F813307A899A4225D1BB7B7B7348
:1035B4000BE07B7B5A1C7B7B194931F81210184AAB
:1035C40022F813107B7B01337B737A7B144B1B7AB9
:1035D400013B9A42EDD3124B1B7A013BDAB2104BFA
:1035E4001A720F4B1B7A1A460D4B002123F8121046
:1035F4000B4B01225A720DE0BB7B0133BB73084BAA
:103604001B7ABA7B9A42CAD304E000BF02E000BF2F
:1036140000E000BF1437BD465DF8047B704700BF6F
:103624004025002080B400AF024B1846BD465DF82B
:10363400047B70474025002080B400AF034B5B7AC5
:103644001846BD465DF8047B704700BF4025002046
:1036540080B400AF034B00225A7200BFBD465DF830
:10366400047B70474025002080B400AFBFF34F8F28
:1036740000BF064BDB6803F4E0620449044B1343C8
:10368400CB60BFF34F8F00BF00BFFDE700ED00E04C
:103694000400FA0580B400AF00BFBD465DF8047BAA
:1036A4007047000080B5F0B002AF07F5DC73A3F5F6
:1036B400DA73186007F5BE7318460AF089F80346F2
:1036C40083F00103DBB2002B40F0C98297F87C3110
:1036D40087F8B53107F5AE731E22002118460AF0AB
:1036E400EFFB97F8B531092B1CDC002B40F3A982C2
:1036F400013B082B00F2A58201A252F823F000BF7F
:10370400313700087F370008DD3700083B380008F0
:103714008F380008E3380008133A0008733B0008A8
:103724008F3B0008FF2B00F07A828AE2012387F89E
:103734005C31002387F85D31012387F85E3104236F
:1037440087F85F31042387F86031D04B1B78002B56
:1037540001D1012300E0002387F8613107F5AE733E
:1037640097F8B51107F5DC72A2F5DA70062200921B
:103774000022006800F078FA72E297F87D3187F849
:103784009E3107F59E7297F89E3111461846FDF753
:10379400F7FB034683F00103DBB2002B0DD097F84F
:1037A400B51107F5DC73A3F5DA7000230093002349
:1037B4000322006800F058FA52E207F59E7397F866
:1037C400B51107F5DC72A2F5DA701E220092002210
:1037D400006800F049FA43E297F87D3187F89F3199
:1037E40007F5BE739A1C97F89F3111461846FDF7EA
:1037F400B9FA034683F00103DBB2002B0DD097F82E
:10380400B51107F5DC73A3F5DA70002300930023E8
:103814000322006800F028FA22E297F8B51107F5B0
:10382400DC73A3F5DA700023009300230022006800
:1038340000F01AFA14E2964802F0E1FFFDF7C6FA26
:10384400034683F00103DBB2002B0DD097F8B511CA
:1038540007F5DC73A3F5DA7000230093002301223B
:10386400006800F001FA0CE097F8B51107F5DC7375
:10387400A3F5DA700023009300230022006800F00F
:10388400F3F9834802F0BBFFEAE1814802F0B7FF95
:10389400FDF756FB034683F00103DBB2002B0DD08A
:1038A40097F8B51107F5DC73A3F5DA7000230093DC
:1038B40000230122006800F0D7F90CE097F8B51155
:1038C40007F5DC73A3F5DA700023009300230022CC
:1038D400006800F0C9F96E4802F091FFC0E197F862
:1038E4007D3187F8A93197F87E3187F8A831002314
:1038F40087F83B3107F23B1207F1080197F8A93129
:103904001846FFF70DF9034683F00103DBB2002BE1
:103914000DD097F8B51107F5DC73A3F5DA70002321
:10392400009300230322006800F09EF998E197F8C1
:10393400A8311A46520013445B0087F8A73197F860
:103944003B3197F8A7219A4211D397F83B31002BCA
:103954000DD097F8B51107F5DC73A3F5DA700023E1
:10396400009300230322006800F07EF978E107F554
:1039740090731B22002118460AF0A2FA97F8A93185
:1039840087F8203197F8A83187F8213197F83B312F
:1039940087F82231002387F8B73125E097F8A7216B
:1039A40097F8B731134487F8A63197F8B7319B00DD
:1039B400033307F590721344C7F8A03197F83B31ED
:1039C40097F8A6219A420AD297F8A63107F108027D
:1039D4009B0013441B681A46D7F8A0311A6097F865
:1039E400B731013387F8B73197F8B731052BD5D9FB
:1039F40007F5907397F8B51107F5DC72A2F5DA7044
:103A04001B2200920022006800F02EF928E197F8AA
:103A14007D3187F8AF3197F87E3187F8AE3197F86A
:103A24007F3187F8AD3197F8AF311F2B03D897F862
:103A3400AD31402B0DD997F8B51107F5DC73A3F51B
:103A4400DA700023009300230322006800F00CF9CD
:103A540006E197F8AE311A46520013445B0087F82A
:103A6400AC3197F8AC2197F8AD319A4212D397F85C
:103A7400B51107F5DC73A3F5DA7000230093002376
:103A84000322006800F0F0F8EAE000BF0000002024
:103A94005802002097F8AD2197F8AC31D31A87F873
:103AA400B63197F8B631062B02D9062387F8B6311A
:103AB40097F8B6319B0087F8AB3197F8AB310433F4
:103AC400202B0DD997F8B51107F5DC73A3F5DA703F
:103AD4000023009300230322006800F0C5F8BFE030
:103AE40007F584731822002118460AF0E9F997F8BB
:103AF400AB2107F5BE73191D07F5847318460AF048
:103B04000BFA97F8AE31002B23D197F8AD31062B81
:103B140028BF062387F8AA3197F8AA2107F58471EC
:103B240097F8AF311846FEF7BFFF034683F0010351
:103B3400DBB2002B0DD097F8B51107F5DC73A3F5B4
:103B4400DA700023009300230122006800F08CF84F
:103B540086E097F8B51107F5DC73A3F5DA70002356
:103B6400009300230022006800F07EF878E097F8C4
:103B7400B51107F5DC73A3F5DA7000230093002375
:103B84000022006800F070F86AE000F0E5F9C7F878
:103B9400B001D7F8B0311B7887F85C31D7F8B03171
:103BA40093F8B33387F85D31D7F8B0311B69DBB2D2
:103BB40087F85E31D7F8B0319B69DBB287F85F31A3
:103BC400D7F8B031DB68DBB287F86031D7F8B031B1
:103BD4005B69DBB287F86131FDF772FA0346002BAB
:103BE40001D0012300E0002387F86231FEF74CFF87
:103BF4000346002B01D0012300E0002387F8633142
:103C040007F5AE7397F8B51107F5DC72A2F5DA7013
:103C1400082200920022006800F026F820E097F8BD
:103C2400B51107F5DC73A3F5DA70002300930023C4
:103C34000022006800F018F8642001F013FCFFF77C
:103C440013FD97F8B51107F5DC73A3F5DA700023BB
:103C5400009300230322006800F006F800E000BF90
:103C640007F5DC77BD4680BD80B586B000AFF8604F
:103C74007B600B46FB721346BB722022002119485D
:103C84000AF01EF9FB7A63F07F03DAB2154B1A705F
:103C9400144ABB7A53707B68002B0FD097F82030FE
:103CA400002B0BD097F820301E2B28BF1E23FB754A
:103CB400FB7D1A4679680C480AF02EF90949F86820
:103CC40009F05EFD0346BB75BB7D012B06D10220C6
:103CD40001F0C8FB0349F86809F052FD00BF18372A
:103CE400BD4680BD4C2500204E25002080B500AF88
:103CF4004FF46F7200212C480AF0E2F82A4B00229C
:103D04001A70294B00221A77274B0022A3F8382275
:103D1400254B002283F84F2201F098FB0346224AE8
:103D2400536001F093FB03461F4A936001F08EFB3E
:103D340003461D4A53631C4B00229A611A4B00220E
:103D440083F8B023184B002283F8B123164B0022CA
:103D540083F8B223144B002283F8B323124B0022BE
:103D6400C3F8B423104B002283F8B8230E4B00226F
:103D7400A3F8BA230D4B00221A700D4B00221A70BF
:103D84000C4B00221A704FF400720B490B4805F0DB
:103D940027F90A4B1B68DA68084B1B6842F01002CB
:103DA400DA6000BF80BD00BF6C250020A829002078
:103DB400A9290020AA290020A4250020CC2A00201B
:103DC40080B582B000AF00F015FE0346FB8019E019
:103DD4001A4BB3F838329BB21A46184B134493F873
:103DE40038307B71154BB3F838329BB201339BB238
:103DF400C3F308039AB2114BA3F838227B7918460F
:103E040000F070FA0D4BB3F838329BB2FA889A423C
:103E1400DED100F027FB0A4B1B78002B03D100F006
:103E240075FD00F099FD00F0B1FD00F0C9FD00F052
:103E34001DFA00BF0837BD4680BD00BF6C250020B9
:103E44000000002080B584B000AF03460A46FB7131
:103E54001346BB71FB793B73BB797B730023BB7344
:103E640007F10C0303221946022000F07FF80346F1
:103E740018461037BD4680BD80B400AF034B1B7895
:103E84001846BD465DF8047B704700BF6C250020D2
:103E940090B486B000AF78607B68002B04D01B4BD5
:103EA4001B78DBB2002B01D100232AE0EFF310834F
:103EB400FB60FB687B6172B600BF154B1B78DBB2FD
:103EC4007968144A0C46DB00134493E8030084E841
:103ED40003000F4B1B78DBB20133DBB203F00F039B
:103EE400DAB20B4B1A70094B1B78DBB2013BDAB226
:103EF400064B1A707B693B613B6983F3108800BFF2
:103F0400012318461837BD4690BC7047AA290020E3
:103F1400A82900202829002080B588B000AF0D4BC7
:103F2400002283F84F220023FB71FA1D07F10803D6
:103F34001146184600F04CF90346002B06D0FA79D6
:103F440007F108031146184600F0CAF800BF2037ED
:103F5400BD4680BD6C25002080B400AF024B1846DE
:103F6400BD465DF8047B70476C25002080B58EB09B
:103F740000AF03463960FB711346BB71BB79102B4C
:103F840001D90023A5E0002387F8373097F83730AC
:103F94005A1C87F8372038333B44AA2203F82C2CC8
:103FA40097F837305A1C87F8372038333B44FA796E
:103FB40003F82C2C97F837305A1C87F837203833FD
:103FC4003B44BA7903F82C2CBB79002B12D03B6804
:103FD400002B0FD097F8373007F10C021344BA794D
:103FE4003968184609F098FF97F83720BB791344CD
:103FF40087F83730BB799A1C07F10C03013311465B
:104004001846FCF72AFD0346BB8697F837305A1C3E
:1040140087F83720BA8ED2B238333B4403F82C2CBD
:10402400BB8E1B0A9AB297F83730591C87F83710A1
:10403400D2B238333B4403F82C2CEFF31083FB62E9
:10404400FB6A3B6372B600BF002387F83630234B0C
:1040540093F84F32DBB283F00103DBB2002B0AD0BA
:1040640097F8372007F10C031146184600F038F88A
:10407400034687F8363097F8363083F00103DBB215
:10408400002B1AD097F8372007F10C031146184675
:1040940000F05AF8034683F00103DBB2002B0CD086
:1040A4000E4B9B6901330D4A93613B6BBB62BB6A48
:1040B40083F3108800BF00230BE03B6B7B627B6AB9
:1040C40083F3108800BF054B5B690133034A5361D6
:1040D400012318463837BD4680BD00BF6C2500203B
:1040E40080B582B000AF78600B46FB70134B93F839
:1040F4004F32DBB2002B01D000231AE0FB781A46C2
:1041040079680F4809F008FF0C4B012283F84F220D
:10411400FB789BB21A460A490A4804F0E5FE0346B6
:10412400002B05D0054B002283F84F22002300E02A
:10413400012318460837BD4680BD00BF6C2500200A
:10414400A6270020CC2A002080B584B000AF786078
:104154000B46FB701D4BFB60FB6893F862310F2B21
:1041640001D900232DE0FB6893F861311A46162328
:1041740002FB03F3FA681344FA787968184609F0E5
:10418400CBFEFB6893F861311946FA68162301FBEC
:1041940003F313441533FA781A70FB6893F861310A
:1041A4000133DBB203F00F03DAB2FB6883F8612159
:1041B400FB6893F862310133DAB2FB6883F8622159
:1041C400012318461037BD4680BD00BFBC27002020
:1041D40080B584B000AF78603960234BFB60FB6826
:1041E40093F86231002B01D1002338E0FB6893F887
:1041F40060311A46162302FB03F3FA68D118FB68F0
:1042040093F860311846FA68162300FB03F313444D
:1042140015331B781A46786809F07EFEFB6893F81C
:1042240060311946FA68162301FB03F3134415336E
:104234001A783B681A70FB6893F860310133DBB27B
:1042440003F00F03DAB2FB6883F86021FB6893F88C
:104254006231013BDAB2FB6883F86221012318461C
:104264001037BD4680BD00BFBC27002080B58AB092
:1042740000AF1B4B93F84F32DBB2002B2BD1184B02
:1042840093F8B233002B26D00023FB70EFF3108396
:104294003B623B6A7B6272B600BF114B93F84F32AC
:1042A400DBB283F00103DBB2002B0ED0FA1C3B1D02
:1042B40011461846FFF78CFF0346002B05D0FA7809
:1042C4003B1D11461846FFF70BFF7B6AFB61FB6938
:1042D40083F3108800E000BF2837BD4680BD00BFCF
:1042E4006C25002080B588B000AF0346FB715A4BA3
:1042F4001B7F052B00F2A58001A252F823F000BF1A
:104304001D43000837430008454300088143000863
:10431400B3430008C3430008FB79AA2B40F09580FF
:104324004D4B01221A7701F091F803464A4A536330
:104334008BE0494AFB799377474B02221A7787E04F
:10434400454AFB79D377444B002283F83220FB792A
:10435400102B08D9404B1B6901333F4A13613E4B74
:1043640000221A7774E0FB79002B03D13A4B042224
:104374001A776DE0384B03221A7769E0364B93F8CD
:1043840032305A1CD1B2344A82F832101A46324BB7
:104394001344FA7983F820202F4B93F832202E4BC4
:1043A400DB7F9A4253D32C4B04221A774FE0FB79DC
:1043B4009AB2294B1A86284B05221A7748E0264BD5
:1043C4001B8E1AB2FB791BB21B021BB213431BB226
:1043D4009AB2214B1A86204B9B7F3B731E4BDB7F8B
:1043E4007B731D4BDB7F002B09D01B4BDB7F1A46F5
:1043F40007F10C0302331949184609F08DFD164BD9
:10440400DB7F9A1C07F10C0311461846FCF725FBC9
:104414000346FB83104B1B8EFA8B9A4208D110483B
:1044240000F03AF80C4BDB6801330B4AD36004E02C
:10443400094B1B690133084A1361074B00221A77A1
:1044440006E0054B00221A7702E000BF00E000BF3F
:1044540000BF2037BD4680BD6C2500208C25002080
:104464008A25002080B500AF0A4B1B7F002B0FD09C
:1044740000F0ECFF0246074B5B6BD31A092B07D9FC
:10448400044B00221A77034B1B690133014A136161
:1044940000BF80BD6C25002080B582B000AF78607D
:1044A40000F0D4FF03462B4A53602A4B1B78002BA1
:1044B4000AD1284B01221A70274B1B78002B03D1F9
:1044C400244B002283F8B3237B681B78013B102B19
:1044D4003AD801A252F823F02945000821450008E2
:1044E40031450008374500084D4500084D45000892
:1044F4004D4500084D4500084D4500084D45000850
:104504004D4500084D4500084D4500084D4500083F
:104514004D4500083D45000845450008786800F011
:104524001DF812E0786800F051F80EE000F0BAF8D7
:104534000BE000F0C7F808E0786800F0CFF804E07A
:10454400786800F00FF900E000BF00BF0837BD46EF
:1045540080BD00BF6C2500200000002080B586B01F
:1045640000AF7860184B1B78002B26D17B685B78F2
:10457400022B24D97B6802337B617B691B783B73F4
:104584007B691B789B08DBB27B737B691B7803F028
:104594000303DBB2BB737B695B78002B14BF01237D
:1045A4000023DBB2FB7300F051FF03463B6107F1CC
:1045B4000C03184600F064F902E000BF00E000BFFD
:1045C4001837BD4680BD00BF0000002080B586B00E
:1045D40000AF7860314B1B78002B58D17B685B7837
:1045E400032B56D90023FB7548E0FB7D2C4AD25C93
:1045F400FB7D79680B449B7853407B750023BB7526
:104604002FE07A7DBB7D22FA03F303F00103002B34
:1046140024D0FB7D7A6813449B781A46BB7D42FA0A
:1046240003F303F00103002B14BF012300233B75A4
:10463400FB7D9B00DAB2BB7D1344DBB23B73FB7D95
:104644007B73BB7DBB733B7DFB7300F0FFFE0346B6
:104654003B6107F10C03184600F012F9BB7D0133EE
:10466400BB75BB7D032BCCD9FA7DFB7D79680A44ED
:1046740091780B4AD154FB7D0133FB75FB7D032BF1
:1046840008D87B685B78FA7D9A42AED302E000BF1B
:1046940000E000BF1837BD4680BD00BF0000002009
:1046A400AC29002080B500AF054B1B78012B05D148
:1046B400002200210420FFF759FC00E000BF80BD68
:1046C4000000002080B400AF034B1B78002BBD46D4
:1046D4005DF8047B704700BF0000002080B584B003
:1046E40000AF78601D4B1B78012B31D17B685B7860
:1046F400042B2FD97B680233FB60FB681A78184BB4
:1047040083F8B823FB685B781BB21B021AB2FB6800
:104714009B781BB213431BB29AB2114BA3F8BA2372
:10472400FB681B78012B0CD1FB68DB78042B08D1C8
:10473400FB681B79042B04D1094B022283F8B323B1
:1047440003E0074B032283F8B32300F087F802E069
:1047540000BF00E000BF1037BD4680BD0000002050
:104764006C25002080B485B000AF78601D4B1B78A9
:10477400002B2FD17B685B78042B2DD97B68023307
:10478400FB60FB681A78184B83F8B823FB685B78E6
:104794001BB21B021AB2FB689B781BB213431BB2F9
:1047A4009AB2114BA3F8BA23FB681B78012B0CD1E6
:1047B400FB68DB78042B08D1FB681B79042B04D13C
:1047C400094B022283F8B32307E0074B032283F843
:1047D400B32302E000BF00E000BF1437BD465DF81C
:1047E400047B7047000000206C25002080B483B057
:1047F40000AF78607B6801221A707B6801225A70CE
:104804007B6800229A707B680422DA707B68042239
:104814001A7100BF0C37BD465DF8047B7047000079
:1048240080B582B000AF3B461846FFF7DFFF3B463A
:10483400052219461020FFF799FB074B012283F844
:10484400B32300F003FE0346034AC2F8B43300BFA7
:104854000837BD4680BD00BF6C25002080B582B0FE
:1048640000AF3B461846FFF7C1FF3B4605221946F9
:104874001120FFF77BFB00BF0837BD4680BD000059
:1048840080B483B000AF78601C4B1B78DBB20F2B75
:1048940010D91B4B1B78DBB20133DBB203F00F03DF
:1048A400DAB2174B1A70154B1B78DBB2013BDAB244
:1048B400124B1A70134B1B78DBB2134A7968DB0076
:1048C40013440A4692E8030083E803000D4B1B7867
:1048D400DBB20133DBB203F00F03DAB2094B1A7017
:1048E400064B1B78DBB20133DAB2044B1A7000BFFB
:1048F4000C37BD465DF8047B704700BFAA29002031
:10490400A8290020A92900202829002080B582B0E8
:1049140000AF00F09BFD78600E4B9B687A68D31A59
:10492400312B13D90B4A7B6893600A4B1B78012BFC
:1049340007D1084B93F8B333002B02D1FFF770FF74
:1049440004E0002200210320FFF710FB00BF08371A
:10495400BD4680BD6C25002080B500AF0A4B93F89E
:10496400B333012B0DD100F071FD0246064BD3F891
:10497400B433D31AB3F5FA7F03D3034B042283F879
:10498400B32300BF80BD00BF6C25002080B500AFFD
:104994000A4B1B78012B0ED100F058FD0246074B41
:1049A4005B68D31A642B06D9044B00221A70034B9C
:1049B400002283F8B32300BF80BD00BF6C25002014
:1049C40080B500AF0A4B1B78012B03D00120FDF703
:1049D40067FE0BE0064B93F8B333032B03D102209D
:1049E400FDF75EFE02E00020FDF75AFE00BF80BD29
:1049F4006C25002080B483B000AF0B4BDB6B1B68CD
:104A04005B68FB80FB88C3F500735A42C3F3080359
:104A1400C2F3080258BF53429BB218460C37BD4636
:104A24005DF8047B704700BFCC2A002080B582B0BB
:104A340000AF78607B681B68044A934201D1FFF79A
:104A44006BFA00BF0837BD4680BD00BF00100140AF
:104A540080B400AF00BFBD465DF8047B7047000022
:104A640080B586B000AF78607B681B681E4A9342AD
:104A740035D100237B617B681B681B687B617B6885
:104A84001B685B687B617B6900233B617B681B68F7
:104A94001B683B617B681B685B683B613B69002367
:104AA400FB607B681B681B68FB607B681B685B683A
:104AB400FB60FB680D4B00221A770C4B0022A3F815
:104AC4003822786804F0B1FA4FF400720849786823
:104AD40004F086FA054B1B690133044A136100BFD5
:104AE4001837BD4680BD00BF001001406C25002072
:104AF400A425002080B483B000AF00237B60104B5A
:104B04005B6C0F4A43F4804353640D4B5B6C03F4BA
:104B140080437B607B6800233B60094B1B6C084A25
:104B240043F080531364064B1B6C03F080533B60CB
:104B34003B6800BF0C37BD465DF8047B704700BF7F
:104B44000038024080B58EB000AF78600023FB626D
:104B54000023BB620023FB60334B1B6C324A43F0DF
:104B640008031364304B1B6C03F00803FB60FB6801
:104B740007F1100207F114031146184603F0FEFC76
:104B84003B6AFB62FB6A002B03D103F0CFFC786322
:104B940004E003F0CBFC03465B007B637B6B234A9E
:104BA400A2FB03239B0C013BBB62214B214A1A60ED
:104BB4001F4B40F2E732DA601D4ABB6A53601C4B5C
:104BC40000221A611A4B00229A60194B00229A6142
:104BD400174803F005FD034687F8333097F8333060
:104BE400002B1BD1124803F04BFD034687F83330EA
:104BF40097F83330002B11D1322000F02BFD7B6865
:104C04000F2B08D800227968322000F007FD0A4AE9
:104C14007B68136002E0012387F8333097F8333060
:104C240018463837BD4680BD0038024083DE1B433A
:104C3400B0290020000C00400800002080B400AF20
:104C440000BFFDE780B400AF00BFFDE780B400AF54
:104C540000BFFDE780B400AF00BFFDE780B400AF44
:104C640000BFFDE780B400AF00BFBD465DF8047B24
:104C7400704780B400AF00BFBD465DF8047B704749
:104C840080B400AF00BFBD465DF8047B704780B4BC
:104C940000AF00BFBD465DF8047B704780B500AF30
:104CA400024803F04FFD00BF80BD00BF842A0020EE
:104CB40080B582B000AF104B1B681B6803F0100373
:104CC400102B11D10C4B1B68DB6803F01003002B75
:104CD4000AD0094B1B681B687B60074B1B685B6829
:104CE4007B607B68FFF7B4FE034804F01DFA00BF45
:104CF4000837BD4680BD00BFCC2A002080B500AF78
:104D0400024803F01FFD00BF80BD00BFB029002092
:104D140080B500AF024800F043FE00BF80BD00BF75
:104D2400142B002080B500AF024800F039FE00BF0C
:104D340080BD00BF742B002080B500AF024801F095
:104D4400B2FE00BF80BD00BF1831002080B400AFA8
:104D5400064BD3F88830054A43F47003C2F8883010
:104D640000BFBD465DF8047B704700BF00ED00E066
:104D740080B487B000AF344B9B6803F00C033B61F5
:104D84003B69082B11D03B69082B44D83B69002BA5
:104D940003D03B69042B04D03DE02C4B2C4A1A6011
:104DA4003DE02A4B2B4A1A6039E0274B5B689B0D88
:104DB40003F00103FB60244B5B6803F03F03BB601B
:104DC400FB68002B0CD0234ABB68B2FBF3F31E4AEA
:104DD40052689209C2F3080202FB03F37B610BE001
:104DE4001B4ABB68B2FBF3F3174A52689209C2F339
:104DF400080202FB03F37B61134B5B681B0C03F09B
:104E0400030301335B007B607A697B68B2FBF3F3D5
:104E14000E4A136003E00D4B0D4A1A6000BF0A4BA3
:104E24009B681B0903F00F030B4AD35C3B61074BE0
:104E34001A683B6922FA03F3044A136000BF1C3763
:104E4400BD465DF8047B7047003802400400002032
:104E54000024F40040787D0138E0000880B500AFFC
:104E640080220021074809F02BF808220021064877
:104E740009F026F8044B00221A70044B00221A6031
:104E840000BF80BDF8290020782A0020802A002055
:104E940080B483B000AF7860044A7B68136000BFBD
:104EA4000C37BD465DF8047B704700BF802A0020A4
:104EB40080B582B000AF0346FB710B46BB7113464D
:104EC4007B71BB791F2B01D9002318E00E4B1B7893
:104ED400012B02D1002000F0CDF80B4B01221A70F7
:104EE400094AFB795370084ABB799370064A7B7967
:104EF400D37000F0ABFA0346034A5360012318460B
:104F04000837BD4680BD00BF782A002090B583B025
:104F140000AF0346FB712B4B1B78002B01D1002300
:104F24004CE0284B5B78FA799A4201D0002345E0A3
:104F3400244B1B78012B13D1012000F09BF8224B4A
:104F44001B68002B36D0204B1B681E4A92781146F2
:104F54001E4A32F821001B4AD2780021984729E0E2
:104F6400184B1B78032B11D1174B1B68002B21D036
:104F7400154B1C68134B9B78144A9B0013445B88A5
:104F8400104AD27800211846A04713E00D4B1B7835
:104F9400022B0FD10C4B1B68002B0BD00A4B1B6848
:104FA400084A92781146094A32F82100054AD27813
:104FB40000219847034B00221A70012318460C372E
:104FC400BD4690BD782A0020802A0020F8290020C0
:104FD40080B500AF044B1B78012B02D1002000F0F8
:104FE40049F800BF80BD00BF782A002080B582B098
:104FF40000AF0B4B1B78012B0DD100F027FA0246B2
:10500400074B5B68D31A7B607B68C72B04D90020ED
:1050140000F030F800E000BF0837BD4680BD00BF97
:10502400782A002080B483B000AF0346FB710A4B9A
:105034001B78012B06D1084B5B78FA799A4201D18F
:10504400012300E0002303F00103DBB218460C3710
:10505400BD465DF8047B7047782A002080B400AF19
:10506400034B5B781846BD465DF8047B704700BF70
:10507400782A002080B584B000AF0346FB71164B3C
:105084001B78012B23D1FB79002B0AD0124B9B7880
:105094001A46124B33F82230FB810F4B02221A704E
:1050A40009E00D4B9B780D4A9B0013445B88FB8100
:1050B400094B03221A700A4B1B68002B08D0084BBB
:1050C4001B68054AD278F8890121984700E000BF9F
:1050D4001037BD4680BD00BF782A0020F829002083
:1050E400802A002080B586B000AF07F108030022B3
:1050F4001A605A609A60DA603B4600221A605A606D
:105104001D4B4FF080421A601B4B53225A601A4BBE
:1051140000229A60184B40F2E732DA60164B002204
:105124001A61154B80229A61134803F059FA034619
:10513400002B01D0FDF736FF4FF48053BB6007F11D
:10514400080319460C4803F0EDFB0346002B01D07D
:10515400FDF728FF00233B6000237B603B46194694
:10516400054803F0EFFD0346002B01D0FDF71AFFBD
:1051740000BF1837BD4680BD842A002080B584B0A6
:1051840000AF78607B681B68B3F1804F15D10023B2
:10519400FB600C4B1B6C0B4A43F001031364094B7B
:1051A4001B6C03F00103FB60FB68002201211C203F
:1051B40000F034FA1C2000F04DFA00BF1037BD4651
:1051C40080BD00BF0038024080B500AF104B114ACB
:1051D4001A600F4B104A5A600D4B00229A600C4B18
:1051E4000022DA600A4B00221A61094B0C225A6130
:1051F400074B00229A61064B0022DA61044803F04F
:1052040023FE0346002B01D0FDF7CCFE00BF80BD7A
:10521400CC2A00200010014040420F0080B58AB023
:1052240000AF786007F1140300221A605A609A6094
:10523400DA601A617B681B684D4A934240F094809F
:1052440000233B614B4B5B6C4A4A43F010035364AD
:10525400484B5B6C03F010033B613B690023FB602C
:10526400444B1B6B434A43F001031363414B1B6BD9
:1052740003F00103FB60FB684FF4C0637B6102230E
:10528400BB610023FB6103233B6207237B6207F1BD
:1052940014031946384801F0D1F8384B384A1A60DB
:1052A400364B4FF000625A60344B00229A60334B05
:1052B4000022DA60314B4FF480621A612F4B0022D6
:1052C4005A612E4B00229A612C4B4FF48072DA61A2
:1052D4002A4B4FF400321A62284B00225A622748A4
:1052E40000F0C6F90346002B01D0FDF75BFE7B6896
:1052F400224ADA63214A7B689363224B224A1A606A
:10530400204B4FF000625A601E4B40229A601D4BA6
:105314000022DA601B4B4FF480621A61194B0022A1
:105324005A61184B00229A61164B0022DA61154B20
:105334004FF400321A62134B00225A62114800F0F3
:1053440097F90346002B01D0FDF72CFE7B680D4A2C
:105354009A630C4A7B68936300220221252000F0A3
:105364005DF9252000F076F900BF2837BD4680BDE1
:10537400001001400038024000000240142B0020BD
:1053840040640240742B0020B8640240DFF834D03B
:10539400FFF7DCFC0C480D490D4A002302E0D45809
:1053A400C4500433C4188C42F9D30A4A0A4C00236B
:1053B40001E013600432A242FBD308F089FDFDF73B
:1053C40041FC70470000012000000020A8000020DC
:1053D40048E10008A8000020FC350020FEE700009A
:1053E40080B500AF0E4B1B680D4A43F40073136085
:1053F4000B4B1B680A4A43F480631360084B1B6819
:10540400074A43F480731360032000F0FCF80F2074
:10541400FFF798FBFFF76EFB0023184680BD00BF23
:10542400003C024080B400AF064B1B781A46064B82
:105434001B681344044A136000BFBD465DF8047B37
:10544400704700BF0C000020D42B002080B400AFB4
:10545400034B1B681846BD465DF8047B704700BFCC
:10546400D42B002080B584B000AF7860FFF7EEFF46
:10547400B8607B68FB60FB68B3F1FF3F05D00A4B63
:105484001B781A46FB681344FB6000BFFFF7DEFF7E
:105494000246BB68D31AFA689A42F7D800BF00BF25
:1054A4001037BD4680BD00BF0C00002080B485B01D
:1054B40000AF78607B6803F00703FB600C4BDB688C
:1054C400BB60BA684FF6FF031340BB60FB681A0267
:1054D400BB68134343F0BF6343F40033BB60044A27
:1054E400BB68D36000BF1437BD465DF8047B7047CA
:1054F40000ED00E080B400AF044BDB681B0A03F04E
:1055040007031846BD465DF8047B704700ED00E0D4
:1055140080B483B000AF0346FB7197F90730002BCA
:105524000BDBFB7903F01F02074997F907305B098E
:10553400012000FA02F241F8232000BF0C37BD46D7
:105544005DF8047B704700BF00E100E080B483B0E5
:1055540000AF03463960FB7197F90730002B0ADB73
:105564003B68DAB20C4997F907301201D2B20B4406
:1055740083F800230AE03B68DAB20849FB7903F0B8
:105584000F03043B1201D2B20B441A7600BF0C374E
:10559400BD465DF8047B704700E100E000ED00E0EB
:1055A40080B489B000AFF860B9607A60FB6803F03A
:1055B4000703FB61FB69C3F10703042B28BF042322
:1055C400BB61FB690433062B02D9FB69033B00E092
:1055D40000237B614FF0FF32BB6902FA03F3DA4325
:1055E400BB681A407B699A404FF0FF317B6901FA2E
:1055F40003F3D9437B680B40134318462437BD4655
:105604005DF8047B704780B582B000AF786078683D
:10561400FFF74CFF00BF0837BD4680BD80B586B09C
:1056240000AF0346B9607A60FB7300237B61FFF728
:1056340061FF78617A68B9687869FFF7B1FF02465B
:1056440097F90F3011461846FFF780FF00BF18374F
:10565400BD4680BD80B582B000AF0346FB7197F9AB
:1056640007301846FFF754FF00BF0837BD4680BD1A
:1056740080B586B000AF786000237B61FFF7E6FE5B
:1056840038617B68002B01D1012399E07B680222F9
:1056940083F835207B68002283F834207B681B68FC
:1056A4001A687B681B6822F001021A600FE0FFF79A
:1056B400CDFE02463B69D31A052B08D97B6820220C
:1056C4005A657B68032283F83520032378E07B68DE
:1056D4001B681B6803F00103002BE8D17B681B687F
:1056E4001B687B617A69384B13407B617B685A681D
:1056F4007B689B681A437B68DB681A437B681B6979
:105704001A437B685B691A437B689B691A437B680D
:10571400DB691A437B681B6A13437A6913437B6111
:105724007B685B6A042B07D17B68DA6A7B681B6B36
:1057340013437A6913437B617B681B687A691A6037
:105744007B681B685B697B617B6923F007037B6172
:105754007B685B6A7A6913437B617B685B6A042BB1
:1057640017D17B689B6A7A6913437B617B68DB6A28
:10577400002B0ED0786800F001FB0346002B08D004
:105784007B6840225A657B68012283F83520012317
:1057940016E07B681B687A695A61786800F0B8FA89
:1057A4000346FB607B68DB6D3F229A40FB689A608E
:1057B4007B6800225A657B68012283F83520002328
:1057C40018461837BD4680BD3F8010F080B586B0BE
:1057D40000AFF860B9607A603B600023FB75FB683A
:1057E4009B6D3B61FB6893F83430012B01D102239C
:1057F40040E0FB68012283F83420FB6893F83530DD
:10580400DBB2012B2FD1FB68022283F83520FB6821
:1058140000225A653B687A68B968F86800F04AFA69
:10582400FB68DB6D3F229A403B699A60FB681B680A
:105834001A68FB681B6842F016021A60FB681B6C4E
:10584400002B07D0FB681B681A68FB681B6842F0D2
:1058540008021A60FB681B681A68FB681B6842F040
:1058640001021A6005E0FB68002283F83420022359
:10587400FB75FB7D18461837BD4680BD80B584B0E6
:1058840000AF78607B689B6DFB60FFF7DFFDB8605D
:105894007B6893F83530DBB2022B08D07B6880221A
:1058A4005A657B68002283F83420012352E07B6828
:1058B4001B681A687B681B6822F016021A607B68F2
:1058C4001B685A697B681B6822F080025A617B68F6
:1058D4001B6C002B03D17B689B6C002B07D07B686F
:1058E4001B681A687B681B6822F008021A607B68D0
:1058F4001B681A687B681B6822F001021A6013E0B7
:10590400FFF7A4FD0246BB68D31A052B0CD97B68AC
:1059140020225A657B68032283F835207B680022A5
:1059240083F83420032315E07B681B681B6803F0AD
:105934000103002BE4D17B68DB6D3F229A40FB68B6
:105944009A607B68012283F835207B68002283F803
:105954003420002318461037BD4680BD80B483B080
:1059640000AF78607B6893F83530DBB2022B04D04B
:105974007B6880225A6501230CE07B68052283F84A
:1059840035207B681B681A687B681B6822F001025B
:105994001A60002318460C37BD465DF8047B704737
:1059A40080B586B000AF78600023BB608E4B1B6867
:1059B4008E4AA2FB03239B0A7B617B689B6D3B6140
:1059C4003B691B68FB607B68DB6D08229A40FB68BF
:1059D4001340002B1AD07B681B681B6803F0040378
:1059E400002B13D07B681B681A687B681B6822F045
:1059F40004021A607B68DB6D08229A403B699A6056
:105A04007B685B6D43F001027B685A657B68DB6DE4
:105A140001229A40FB681340002B12D07B681B685C
:105A24005B6903F08003002B0BD07B68DB6D0122E4
:105A34009A403B699A607B685B6D43F002027B6825
:105A44005A657B68DB6D04229A40FB681340002B87
:105A540012D07B681B681B6803F00203002B0BD079
:105A64007B68DB6D04229A403B699A607B685B6DBE
:105A740043F004027B685A657B68DB6D10229A4010
:105A8400FB681340002B43D07B681B681B6803F042
:105A94000803002B3CD07B68DB6D10229A403B69E5
:105AA4009A607B681B681B6803F48023002B18D062
:105AB4007B681B681B6803F40023002B08D17B68F8
:105AC4001B6C002B24D07B681B6C786898471FE004
