:020000040800F2
:1000000000000120F12900082D26000835260008EF
:100010003D260008452600084D2600080000000087
:10002000000000000000000000000000552600084D
:100030006326000800000000712600087F260008E3
:10004000412A0008412A0008412A0008412A0008E4
:10005000412A0008412A0008412A0008412A0008D4
:10006000412A0008412A0008412A0008412A0008C4
:10007000412A0008412A0008412A0008412A0008B4
:10008000412A0008412A0008412A00080000000017
:10009000000000000000000000000000412A0008ED
:1000A000412A0008412A0008412A0008412A000884
:1000B0008D260008412A0008412A0008412A00082C
:1000C000412A0008412A0008412A0008412A000864
:1000D000412A0008A1260008412A0008000000006B
:1000E000412A0008412A0008412A000800000000B7
:1000F000000000000000000000000000412A00088D
:1001000000000000412A0008D5260008412A000806
:1001100000000000000000000000000000000000DF
:10012000412A0008412A0008E9260008412A00085F
:10013000412A00080000000000000000000000004C
:10014000000000000000000000000000FD26000884
:10015000412A0008412A000811270008412A000806
:10016000412A0008412A00080000000000000000A9
:10017000000000000000000000000000000000007F
:1001800000000000412A00080000000000000000FC
:04019000412A0008F8
:1001940010B5054C237833B9044B13B10448AFF3BD
:1001A40000800123237010BD88000020000000009F
:1001B4003CAC000808B5034B1BB103490348AFF33B
:1001C400008008BD000000008C0000203CAC00084A
:1001D40053B94AB9002908BF00281CBF4FF0FF31AA
:1001E4004FF0FF3000F088B9ADF1080C6DE904CE92
:1001F40000F006F8DDF804E0DDE9022304B07047FE
:100204002DE9F047089D8E4604468846002B4AD1C6
:100214008A42174662D9B2FA82F64EB1C6F1200379
:1002240001FA06F820FA03F3B74043EA0808B44099
:100234004FEA174E1FFA87FCB8FBFEF1230C0EFBA6
:10024400118843EA084301FB0CF29A4209D9FB18CE
:1002540001F1FF3080F0EA809A4240F2E7800239EF
:100264003B449A1AA3B2B2FBFEF00EFB102243EAFF
:10027400024300FB0CFC9C4509D9FB1800F1FF323A
:1002840080F0D6809C4540F2D3803B44023840EA5B
:100294000140A3EB0C0300211DB1F3400022C5E98A
:1002A4000032BDE8F0878B4205D90DB1C5E90001E4
:1002B40000210846F5E7B3FA83F1002946D17345D6
:1002C40002D3824200F20581841A6EEB03020120FC
:1002D4009046002DE5D0C5E90048E2E7002A00F089
:1002E4009080B2FA82F6002E40F0A4808A1A030CA1
:1002F4004FEA174E80B2BCB20121B2FBFEFC0EFBEA
:100304001C2243EA024304FB0CF29A4207D9FB186D
:100314000CF1FF3802D29A4200F2E080C4469B1AE4
:10032400B3FBFEF20EFB123340EA034302FB04F478
:100334009C4207D9FB1802F1FF3002D29C4200F222
:10034400CA8002461B1B42EA0C40A5E7C1F1200605
:100354008B4022FA06F71F430EFA01F420FA06F343
:100364002EFA06FE4FEA1749234300FA01F81FFA52
:1003740087FCBEFBF9F01C0C09FB10EE44EA0E44AA
:1003840000FB0CFEA64502FA01F209D93C1900F162
:10039400FF3A80F09C80A64540F2998002383C44A4
:1003A400A4EB0E041FFA83FEB4FBF9F309FB134418
:1003B4004EEA044403FB0CFCA44508D93C1903F1A0
:1003C400FF3E80F08280A4457FD9023B3C4443EA4F
:1003D4000040A4EB0C04A0FB02EC64457346E14628
:1003E40062D35FD05DB1B8EB030264EB090404FA95
:1003F40006F622FA01F31E43CC40C5E9006400214D
:100404004FE7B1FBF2FC010C41EA0E4180B240EA35
:1004140001423B4638463C46B846BE462026B1FB20
:10042400F7F1A2EB080241EA0C4166E7014618E73E
:1004340010462CE7C6F120022EFA02F3B740B14071
:1004440020FA02F24FEA174E0A43B3FBFEF8BCB29D
:100454000EFB1833110C41EA034108FB04F9B040C8
:1004640089454FEA104380B23ED9791808F1FF3C20
:1004740001D289451FD8A1EB0901B1FBFEF909FBA3
:1004840004F80EFB191192B242EA0142424529D204
:10049400BA1809F1FF31C4D24245C2D2A9F102010E
:1004A4003A44BEE7F0459DD2BEEB02036CEB070C69
:1004B4000138E14696E7A7EB09094944A8F1020C83
:1004C400B1FBFEF909FB04F8DBE773467FE750460E
:1004D40066E70846FDE63B44023A33E7ACF1020C1A
:1004E4003B441CE749469CE7A1EB0901C446B1FB28
:1004F400FEF909FB04F8C4E7704700BF80B485B077
:1005040000AF03460A46FB8013467B717B791BB21E
:100514001B021AB2B7F9063053401BB2FB8000230A
:10052400FB7314E0B7F90630002B0ADAB7F906308A
:100534005B001BB283F4815383F001031BB2FB8085
:1005440002E0FB885B00FB80FB7B0133FB73FB7BDE
:10055400072BE7D9FB8818461437BD465DF8047BA2
:10056400704780B584B000AF786039604FF6FF7390
:10057400FB810023BB600DE07A68BB6813441A78E2
:10058400FB8911461846FFF7B9FF0346FB81BB6898
:100594000133BB60BA683B689A42EDD3FB891846C5
:1005A4001037BD4680BD000080B582B000AF002387
:1005B4007B60104B1B6B0F4A43F4800313630D4B9A
:1005C4001B6B03F480037B607B68002202213A20CA
:1005D40002F054FB3A2002F06DFB00220221462077
:1005E40002F04CFB462002F065FB00BF0837BD4615
:1005F40080BD00BF0038024080B58AB000AF07F16B
:10060400140300221A605A609A60DA601A610023A7
:100614003B61444B1B6B434A43F001031363414B5F
:100624001B6B03F001033B613B690023FB603D4B03
:100634001B6B3C4A43F0020313633A4B1B6B03F0FE
:100644000203FB60FB680023BB60364B1B6B354A1F
:1006540043F004031363334B1B6B03F00403BB60CD
:10066400BB6800237B602F4B1B6B2E4A43F0800337
:1006740013632C4B1B6B03F080037B607B682A4B5A
:100684001B6A294A23F47043136201220F2127486D
:1006940003F0A4F80F237B610123BB610023FB61FA
:1006A40002233B6207F114031946204802F012FFAB
:1006B40063237B610023BB610123FB6107F1140306
:1006C4001946194802F006FF01224FF40051184858
:1006D40003F084F84FF400537B610123BB610023D2
:1006E400FB6100233B6207F114031946104802F032
:1006F400F1FE01224FF440510B4803F06FF84FF420
:1007040040537B610123BB610023FB6100233B62F7
:1007140007F114031946044802F0DCFE00BF283731
:10072400BD4680BD00380240000402400000024083
:100734000008024080B500AF0922002107480AF0F2
:1007440041FA0922002106480AF03CFA034B01222F
:100754001A70034B01221A7000BF80BDA400002050
:10076400B000002080B584B000AF786000F088F954
:10077400034683F00103DBB2002B41D100F098F96A
:10078400F860214B01221A70FB681A781E4B5A70CC
:100794001D4B00229A70FB681B7C002B05D006229F
:1007A40001211A480AF00EFA11E006220021174826
:1007B4000AF008FAFB68DB79062B28BF0623FB72D4
:1007C400FB680133FA7A194610480AF027FA09221D
:1007D4000F490D480AF0E6F90346002B0DD00A49EB
:1007E400786809F077FE0346BB72BB7A002B04D10C
:1007F400074B054A07CA03C31A7000F04DF900E01D
:1008040000BF1037BD4680BDB0000020B3000020FB
:10081400A400002080B500AF094B0A4A1A60084BB7
:1008240004225A60064B4FF4FA629A60044802F0BC
:10083400EEFF0346002B01D000F0E8FD00BF80BDB1
:10084400BC0000200030004080B582B000AF14220C
:10085400002121480AF0B6F9202200211F480AF09D
:10086400B1F9202200211E480AF0ACF91D4B0022E8
:100874001A701D4B1D4A1A601B4B1D4A5A600223F5
:100884007B6007E0184A7B68002142F823107B68EC
:1008940001337B607B680F2BF4DD164B164A1A601C
:1008A400144B164A5A6002233B6007E0114A3B6826
:1008B400002142F823103B6801333B603B680F2B57
:1008C400F4DD054B00225A72034B0122DA6000BFAB
:1008D4000837BD4680BD00BFC80000205C01002071
:1008E4007C0100209C010020DC000020ACAC00084E
:1008F400CCAC00081C010020ECAC00080CAD0008D6
:1009040080B584B000AF78607B68002B4ED07B68E4
:100914005B78032B4CD87B689B78032B48D87B6887
:100924005B789B00DAB27B689B7813447B737B68AB
:10093400DB78012B0FD17B685A787B689B7819464A
:10094400104600F0BFF80346FB817B7B1B49FA8904
:1009540021F8132009E07B7B184A32F81330FB811D
:100964007B7B164A002122F81310FB89002B21D02F
:10097400FB89B3F5704F1DD0FB891B0B9BB203F0B1
:100984000F03002B02D0012B08D014E07B68DA7827
:10099400FB891146184600F015F90CE07B68DA78FB
:1009A400FB891146184600F05BF904E000BF02E041
:1009B40000BF00E000BF1037BD4680BD5C010020D1
:1009C40080B584B000AF78607B68002B4ED07B6824
:1009D4005B78032B4CD87B689B78032B48D87B68C7
:1009E4005B789B00DAB27B689B7813447B737B68EB
:1009F400DB78012B0FD17B685A787B689B7819468A
:100A0400104600F09FF80346FB817B7B1B49FA8963
:100A140021F8132009E07B7B184A32F81330FB815C
:100A24007B7B164A002122F81310FB89002B21D06E
:100A3400FB89B3F5704F1DD0FB891B0B9BB203F0F0
:100A44000F03002B02D0012B08D014E07B68DA7866
:100A5400FB891146184600F0B5F80CE07B68DA789B
:100A6400FB891146184600F0FBF804E000BF02E0E1
:100A740000BF00E000BF1037BD4680BD7C010020F0
:100A840080B400AF034B1B7A1846BD465DF8047B67
:100A9400704700BFC800002080B400AF034B0022A1
:100AA4001A7200BFBD465DF8047B7047C800002081
:100AB40080B400AF024B1846BD465DF8047B704716
:100AC400C800002080B485B000AF03460A46FB711D
:100AD4001346BB710F23FB6026E0184BDA68FB68F2
:100AE40022FA03F303F00103002B17D0144AFB6826
:100AF40052F82330002B13D0114AFB6852F82320FC
:100B0400FB799900BB790B445B0013441B887B8100
:100B14007B89B3F5704F04D07B8909E000BF00E006
:100B240000BFFB68013BFB60FB68002BD5DA0023A8
:100B340018461437BD465DF8047B7047C800002092
:100B4400DC00002080B485B000AF03460A46FB7188
:100B54001346BB710F23FB6026E0184BDA68FB6871
:100B640022FA03F303F00103002B17D0144AFB68A5
:100B740052F82330002B13D0114AFB6852F823207B
:100B8400FB799900BB790B445B0013441B887B8180
:100B94007B89B3F5704F04D07B8909E000BF00E086
:100BA40000BFFB68013BFB60FB68002BD5DA002328
:100BB40018461437BD465DF8047B7047C800002012
:100BC4001C01002080B584B000AF03460A46FB80B8
:100BD40013467B71FB88C3F30B03FB81FB88C3F3D0
:100BE4000B03DF2B28DDFB88C3F30B03E72B23DC8C
:100BF400FB88C3F30B03E03B012202FA03F37B738C
:100C04007B79012B07D1154B1A787B7B1343DAB21E
:100C1400124B1A700BE0114B1B785AB297F90D3036
:100C2400DB435BB213405BB2DAB20C4B1A700B4B72
:100C340001221A7200BF0DE07B79012B05D1FB89DB
:100C4400DBB2184600F076F804E0FB89DBB2184604
:100C540000F0B0F800BF1037BD4680BDC8000020CA
:100C640080B485B000AF03460A46FB8013467B710F
:100C7400FB881B12DBB203F00F03FB73FB881B1111
:100C8400DBB203F00F03BB73BB7B0F2B44D8FB7B9E
:100C9400022B37D0022B41DC002B02D0012B1ED0BB
:100CA4003CE07B79012B09D1214BDA68BB7B012124
:100CB40001FA03F313431E4AD36009E01C4BDA68BC
:100CC400BB7B012101FA03F3DB431340184AD360D1
:100CD400174BDB6843F00103154AD36023E07B79AB
:100CE400012B1DD1124BDA68BB7B012101FA03F3FE
:100CF40053400F4AD3600E4BDB6843F001030C4AA8
:100D0400D3600DE07B79012B0CD1BB7B012202FA6D
:100D140003F3074AD36005E000BF04E000BF02E02C
:100D240000BF00E000BF1437BD465DF8047B704788
:100D3400C800002080B584B000AF0346FB710023D7
:100D4400FB7309E0FB7B194A13445B78FA799A42F6
:100D540028D0FB7B0133FB73144BDB79FA7B9A427B
:100D640002D2FB7B052BEDD9104BDB79052B0DD87B
:100D74000E4BDB791A460D4B1344FA795A700B4B20
:100D8400DB790133DAB2094BDA7105E0084B1B78E1
:100D94000133DAB2064B1A7000F06CF8034B0122EF
:100DA4001A7200E000BF1037BD4680BDC8000020A5
:100DB4009C01002080B584B000AF0346FB71002382
:100DC400FB733CE0FB7B294A13445B78FA799A4233
:100DD40032D1FB7BBB730CE0BB7B5A1CBB7B23492E
:100DE4000A445178214A13440A465A70BB7B0133A2
:100DF400BB73BA7B1D4BDB79013B9A42ECDB1B4B8B
:100E0400DB79013BDAB2194BDA71184BDB791A46FC
:100E1400164B134400225A70154B1B78002B05D037
:100E2400134B1B78013BDAB2114B1A7000F022F815
:100E34000E4B01221A7216E0FB7B0133FB730B4B42
:100E4400DB79FA7B9A42BDD3094B1B78002B0AD07D
:100E5400074B1B78013BDAB2054B1A7000F00AF815
:100E6400024B01221A721037BD4680BDC800002013
:100E74009C01002080B483B000AF154B1B78002B7D
:100E840014BF01230023DAB2124B1A74114B00224F
:100E94005A720F237B6010E00E4BDA687B6822FAEB
:100EA40003F303F00103002B04D07B68DAB2094B8F
:100EB4005A7206E07B68013B7B607B68002BEBDCAD
:100EC40000BF00BF0C37BD465DF8047B704700BF10
:100ED4009C010020C800002080B582B000AF78607B
:100EE4000B467B8013467B707B7883F00103DBB277
:100EF4001A467B881946786802F070FC00BF0837F0
:100F0400BD4680BD80B500AF10220021104809F015
:100F140059FE0F4B00221A7001F0C8FD03460C4A1B
:100F240053600B4B00221A7200224FF400510948FF
:100F3400FFF7D2FF00224FF480510748FFF7CCFFA0
:100F440000224FF400510448FFF7C6FF00BF80BDE4
:100F5400A0010020000802400004024080B582B0D5
:100F640000AF0346FB710A4B1B78FA799A420BD007
:100F7400074AFB79137001F099FD0346044A536054
:100F8400034B00221A7200E000BF0837BD4680BD43
:100F9400A001002080B483B000AF7860044A7B686D
:100FA400D36000BF0C37BD465DF8047B704700BFBB
:100FB400A001002080B582B000AF01F077FD786019
:100FC4003F4B1B78022B2DD0022B4BDC002B02D085
:100FD400012B07D046E000224FF400513948FFF7B7
:100FE4007BFF46E0364B5B687A68D31AF92B09D944
:100FF400334A7B685360324B1B7A83F00103DAB2C5
:101004002F4B1A722E4B1B7A03F00103002B14BFD3
:1010140001230023DBB21A464FF400512948FFF79D
:101024005BFF26E0264B5B687A68D31A7C2B09D9D0
:10103400234A7B685360224B1B7A83F00103DAB2A4
:101044001F4B1A721E4B1B7A03F00103002B14BFB3
:1010540001230023DBB21A464FF400511948FFF76D
:101064003BFF06E000224FF400511648FFF734FF1F
:1010740000BF154B1B78002B1DD1114BDB68012BD6
:101084008CBF01230023FB70FB781A464FF4805178
:101094000E48FFF721FF0A4B5B7A03F00203002B93
:1010A40014BF01230023BB70BB781A464FF40051D0
:1010B4000648FFF711FF00BF0837BD4680BD00BFDB
:1010C400A0010020000802400000002000040240AB
:1010D40080B582B000AF254B5B6B244A43F080039C
:1010E400536300233B60214B5B6C204A43F48043F1
:1010F40053641E4B5B6C03F480433B603B680A20E3
:1011040001F0E0FC0023FB710023BB710FE04FF002
:10111400A0431B6803F40023002B02D0FB790133A6
:10112400FB71012001F0CEFCBB790133BB71BB79AB
:10113400022BECD9FB79032B02D100237B7107E04E
:10114400FB79002B02D101237B7101E000237B7129
:101154007B79012B05D1054B5B6B044A23F080039B
:1011640053637B7918460837BD4680BD003802407A
:1011740080B590B000AF01F063FC00F0C1F8FFF758
:10118400A7FF03461A46414B1A70FFF735FAFFF7DB
:101194000BFA01F0D7FA01F047FB00F03DF9FFF735
:1011A400B1FE00F0DDFBFFF735FB384B1B78002B5D
:1011B40005D108F0EBFEFFF747FBFFF7BBFA344815
:1011C40004F08EFA00F06AF8324802F064FB00F092
:1011D40021FC2E4B1B78002B4CD104E007F1340387
:1011E4001846FFF78DFB07F13403184600F0C0F9E9
:1011F4000346002BF2D104E007F12C031846FFF755
:10120400DFFB07F12C03184600F06AFC0346002BB1
:10121400F2D1214809F0BEF90346002B02D01E4842
:10122400FFF7A0FA3B1D184609F08CF900F04CFCBE
:101234000346012B08D1184B93F89C32DBB2032BE5
:1012440002D00220FFF78AFEFFF732FCF863FB6B43
:10125400DB681846FFF79EFE14E097F8242097F801
:101264002730012B01D1012300E000231946104649
:1012740000F010FC07F12403184600F079F9034646
:10128400002BEAD1FFF796FE9EE700BF0000002086
:1012940088070020BC000020E008002080B582B050
:1012A40000AF154B1B78002B01D1022300E004236F
:1012B400BB710023FB7114E000224FF400510F486E
:1012C40002F08CFA642001F0FDFB01224FF400517E
:1012D4000A4802F083FA642001F0F4FBFB7901333D
:1012E400FB71FA79BB799A42E6D3C82001F0EAFB94
:1012F40000BF0837BD4680BD000000200008024042
:1013040080B594B000AF07F12003302200211846C5
:1013140009F058FC07F10C0300221A605A609A6025
:10132400DA601A610023BB60294B1B6C284A43F026
:1013340080531364264B1B6C03F08053BB60BB6863
:1013440000237B60234B1B6823F44043214A43F46E
:10135400004313601F4B1B6803F440437B607B68AE
:1013640001233B624FF480337B620223BB634FF45F
:101374008003FB6319233B644FF4A8737B64042349
:10138400BB640723FB6407F12003184603F0CEFC7B
:101394000346002B01D000F039F80F23FB60022331
:1013A4003B6100237B614FF48053BB610023FB61ED
:1013B40007F10C030221184603F030FF0346002B0B
:1013C40001D000F023F800BF5037BD4680BD00BFF8
:1013D400003802400070004080B582B000AF7860F1
:1013E4007B681B68084A934201D101F04BFB7B6880
:1013F4001B68B3F1804F03D100F084F800F072F859
:1014040000BF0837BD4680BD000C004080B400AF6B
:1014140072B600BF00BFFDE780B582B000AF5022B6
:1014240000212E4809F0CEFB4FF4827200212C4893
:1014340009F0C8FB0023FB713BE00023BB7129E0EA
:10144400FA79BB792549920013440233002201F84A
:101454002320FA79BB7921499200134402339B007B
:101464000B4400225A70FA79BB791C499200134448
:1014740002339B000B4400229A70FA79BB79174916
:101484009200134402339B000B440022DA70BB79B0
:101494000133BB71BB79032BD2D9FB790F4A0021ED
:1014A400D154FB790D4A134400221A71FB7901339C
:1014B400FB71FB79032BC0D900237B7106E07B7998
:1014C400184600F021FA7B7901337B717B79032B79
:1014D400F5D900BF00BF0837BD4680BDB00100206C
:1014E4000002002080B500AF00F0C6F800F0EEF86E
:1014F400034BDB6C0133024AD36400BF80BD00BFE1
:10150400B001002080B483B000AF0023FB7122E05F
:101514000023BB7119E0FA79BB79920013440233BA
:101524009B00124A13443B603B681B78012B09D192
:101534003B685B78002B05D03B685B78013BDAB2F3
:101544003B685A70BB790133BB71BB79032BE2D979
:10155400FB790133FB71FB79032BD9D900BF00BFA1
:101564000C37BD465DF8047B704700BFB001002016
:1015740090B482B000AF78607B68002B01D1002367
:101584002EE01A4B93F80231002B01D1002327E0FF
:1015940072B600BF154B93F800317968134A0C46B4
:1015A400DB00134493E8030084E803000F4B93F833
:1015B400003101335A4203F01F0302F01F0258BFE7
:1015C4005342DAB2094B83F80021084B93F80231F5
:1015D400013BDAB2054B83F8022162B600BF012356
:1015E40018460837BD4690BC704700BF0002002073
:1015F40080B483B000AF03460A46FB711346BB7147
:10160400FB799B00DAB2BB791344DBB218460C3782
:10161400BD465DF8047B704780B483B000AF0023FF
:10162400FB71134B1B693B600023BB7115E0BB7955
:10163400104A32F813301A463B681340002B09D184
:10164400BB79012202FA03F35AB297F90730134324
:101654005BB2FB71BB790133BB71BB79032BE6D958
:10166400FB7918460C37BD465DF8047B704700BF14
:101674000004024034AD000890B583B000AF0023ED
:10168400FB7119E0FB79184600F054F900BF00BF64
:1016940000BF00BF00BF00BF00BF00BFFC79FFF761
:1016A400BBFF03461A46084B1A55FB79184600F04F
:1016B4002BF9FB790133FB71FB79032BE2D900BFD2
:1016C40000BF0C37BD4690BDB001002080B584B08A
:1016D40000AF544B002283F848200023FB7398E0AA
:1016E4000023BB738EE0FA7BBB7B9200134402336E
:1016F4009B004C4A1344BB60FB7B4A4AD35C1A46AA
:10170400BB7B42FA03F303F00103002B14BF012354
:101714000023FB71BB681B78002B0ED1BB689B7840
:10172400FA799A426BD0BB6801221A70BB68FA79C5
:10173400DA70BB6805225A7061E0BB689B78FA795D
:101744009A4206D1BB6800221A70BB6800225A7004
:1017540055E0BB685B78002B46D1BB68DB78FA792F
:101764009A423AD1BB68FA799A70BB6800221A701F
:10177400FB79002B12D0FB7B2A4A13441B795AB203
:10178400BB7B012101FA03F35BB213435AB2FB7B27
:10179400D1B2244A13440A461A7113E0FB7B214A4E
:1017A40013441B795AB2BB7B012101FA03F35BB2E8
:1017B400DB435BB213405AB2FB7BD1B2194A1344E8
:1017C4000A461A71174B012283F84820FA79B97B2B
:1017D400FB7B184600F028F811E0BB68FA79DA7050
:1017E400BB6805225A700AE0BB68DB78FA799A4232
:1017F40005D0BB68FA79DA70BB6805225A70BB7BE6
:101804000133BB73BB7B032B7FF66DAFFB7B0133D3
:10181400FB73FB7B032B7FF663AF00BF00BF103766
:10182400BD4680BDB001002080B584B000AF034642
:10183400FB710B46BB7113467B71FB797B72BB79E1
:10184400BB72BA79FB7911461846FFF7D1FE0346FD
:101854003B727B79FB7201F029F90346FB6007F1C7
:101864000803184600F004F800BF1037BD4680BDD9
:1018740080B483B000AF7860224B93F802311F2B01
:1018840016D9204B93F8003101335A4203F01F0359
:1018940002F01F0258BF5342DAB21A4B83F80021F8
:1018A400184B93F80231013BDAB2164B83F802214C
:1018B400144B93F80131134A7968DB0013440A4648
:1018C40092E8030083E803000E4B93F801310133DF
:1018D4005A4203F01F0302F01F0258BF5342DAB208
:1018E400084B83F80121074B93F802310133DAB234
:1018F400044B83F80221012318460C37BD465DF8DA
:10190400047B70470002002080B483B000AF03461C
:10191400FB71FB79054A32F81320054B9A6100BF2D
:101924000C37BD465DF8047B704700BF2CAD000842
:101934000000024080B483B000AF0346FB71FB7922
:10194400054A32F81330054A1B04936100BF0C3773
:10195400BD465DF8047B70472CAD000800000240D2
:1019640080B500AF4FF46D720021244809F02AF9C4
:10197400224B00221A70214B00221A771F4B00229F
:10198400A3F838221D4B002283F84F2201F08EF871
:1019940003461A4A536001F089F80346174A9360D4
:1019A40001F084F80346154A5363144B00229A61EC
:1019B400124B002283F8B023104B002283F8B1238A
:1019C4000E4B002283F8B2230D4B00221A700D4BEC
:1019D40000221A700C4B00221A704FF400720B494B
:1019E4000B4804F02DFB0A4B1B68DA68084B1B6894
:1019F40042F01002DA6000BF80BD00BF0403002083
:101A040038070020390700203A0700203C03002053
:101A1400D007002080B582B000AF00F0E1FC03469F
:101A2400FB8019E0194BB3F838329BB21A46174BB6
:101A3400134493F838307B71144BB3F838329BB2AB
:101A440001339BB2C3F308039AB2104BA3F83822B4
:101A54007B79184600F064FA0C4BB3F838329BB229
:101A6400FA889A42DED100F01BFB094B1B78002B4D
:101A740001D100F073FC00F08BFC00F09FFC00F03F
:101A840013FA00BF0837BD4680BD00BF0403002021
:101A94000000002080B584B000AF03460A46FB7105
:101AA4001346BB71FB793B73BB797B730023BB7318
:101AB40007F10C0303221946022000F075F80346CF
:101AC40018461037BD4680BD80B400AF034B1B7869
:101AD4001846BD465DF8047B704700BF0403002030
:101AE40090B486B000AF78607B68002B04D01B4BA9
:101AF4001B78DBB2002B01D100232AE0EFF3108323
:101B0400FB60FB687B6172B600BF154B1B78DBB2D0
:101B14007968144A0C46DB00134493E8030084E814
:101B240003000F4B1B78DBB20133DBB203F00F036E
:101B3400DAB20B4B1A70094B1B78DBB2013BDAB2F9
:101B4400064B1A707B693B613B6983F3108800BFC5
:101B5400012318461837BD4690BC70473A07002049
:101B640038070020B806002080B588B000AF0D4BC0
:101B7400002283F84F220023FB71FA1D07F10803AA
:101B84001146184600F042F90346002B06D0FA79B4
:101B940007F108031146184600F0C0F800BF2037CB
:101BA400BD4680BD0403002080B58EB000AF03465F
:101BB4003960FB711346BB71BB79102B01D900232B
:101BC400A5E0002387F8373097F837305A1C87F898
:101BD400372038333B44AA2203F82C2C97F83730AB
:101BE4005A1C87F8372038333B44FA7903F82C2CF5
:101BF40097F837305A1C87F8372038333B44BA7982
:101C040003F82C2CBB79002B12D03B68002B0FD08F
:101C140097F8373007F10C021344BA79396818463B
:101C240008F0FCFF97F83720BB79134487F8373066
:101C3400BB799A1C07F10C03013311461846FEF7D1
:101C440090FC0346BB8697F837305A1C87F8372038
:101C5400BA8ED2B238333B4403F82C2CBB8E1B0A09
:101C64009AB297F83730591C87F83710D2B2383304
:101C74003B4403F82C2CEFF31083FB62FB6A3B63B9
:101C840072B600BF002387F83630234B93F84F32E7
:101C9400DBB283F00103DBB2002B0AD097F83720C4
:101CA40007F10C031146184600F038F8034687F88C
:101CB400363097F8363083F00103DBB2002B1AD0AC
:101CC40097F8372007F10C031146184600F05AF82C
:101CD400034683F00103DBB2002B0CD00E4B9B694F
:101CE40001330D4A93613B6BBB62BB6A83F310887B
:101CF40000BF00230BE03B6B7B627B6A83F310889D
:101D040000BF054B5B690133034A53610123184645
:101D14003837BD4680BD00BF0403002080B582B0C3
:101D240000AF78600B46FB70134B93F84F32DBB275
:101D3400002B01D000231AE0FB781A4679680F487B
:101D440008F06CFF0C4B012283F84F22FB789BB206
:101D54001A460A490A4804F0F7F80346002B05D04E
:101D6400054B002283F84F22002300E0012318468C
:101D74000837BD4680BD00BF040300203E05002097
:101D8400D007002080B584B000AF78600B46FB70AC
:101D94001D4BFB60FB6893F862310F2B01D90023C4
:101DA4002DE0FB6893F861311A46162302FB03F316
:101DB400FA681344FA787968184608F02FFFFB682C
:101DC40093F861311946FA68162301FB03F31344AF
:101DD4001533FA781A70FB6893F861310133DBB27A
:101DE40003F00F03DAB2FB6883F86121FB6893F810
:101DF40062310133DAB2FB6883F8622101231846A9
:101E04001037BD4680BD00BF5405002080B584B0A6
:101E140000AF78603960234BFB60FB6893F8623154
:101E2400002B01D1002338E0FB6893F860311A4697
:101E3400162302FB03F3FA68D118FB6893F86031A8
:101E44001846FA68162300FB03F3134415331B7872
:101E54001A46786808F0E2FEFB6893F86031194688
:101E6400FA68162301FB03F3134415331A783B680D
:101E74001A70FB6893F860310133DBB203F00F038F
:101E8400DAB2FB6883F86021FB6893F86231013BA6
:101E9400DAB2FB6883F86221012318461037BD4685
:101EA40080BD00BF5405002080B58AB000AF1B4B35
:101EB40093F84F32DBB2002B2BD1184B93F8B2338B
:101EC400002B26D00023FB70EFF310833B623B6AA8
:101ED4007B6272B600BF114B93F84F32DBB283F0D2
:101EE4000103DBB2002B0ED0FA1C3B1D1146184631
:101EF400FFF78CFF0346002B05D0FA783B1D1146F3
:101F04001846FFF70BFF7B6AFB61FB6983F31088BC
:101F140000E000BF2837BD4680BD00BF0403002099
:101F240080B588B000AF0346FB715A4B1B7F052B6D
:101F340000F2A58001A252F823F000BF591F000847
:101F4400731F0008811F0008BD1F0008EF1F000851
:101F5400FF1F0008FB79AA2B40F095804D4B01220E
:101F64001A7700F0A3FD03464A4A53638BE0494ABB
:101F7400FB799377474B02221A7787E0454AFB792E
:101F8400D377444B002283F83220FB79102B08D9F5
:101F9400404B1B6901333F4A13613E4B00221A77C1
:101FA40074E0FB79002B03D13A4B04221A776DE0DD
:101FB400384B03221A7769E0364B93F832305A1CB7
:101FC400D1B2344A82F832101A46324B1344FA79A9
:101FD40083F820202F4B93F832202E4BDB7F9A423C
:101FE40053D32C4B04221A774FE0FB799AB2294B36
:101FF4001A86284B05221A7748E0264B1B8E1AB204
:10200400FB791BB21B021BB213431BB29AB2214BC6
:102014001A86204B9B7F3B731E4BDB7F7B731D4BD0
:10202400DB7F002B09D01B4BDB7F1A4607F10C0327
:1020340002331949184608F0F1FD164BDB7F9A1C50
:1020440007F10C0311461846FEF78BFA0346FB838F
:10205400104B1B8EFA8B9A4208D1104800F03AF8C4
:102064000C4BDB6801330B4AD36004E0094B1B695A
:102074000133084A1361074B00221A7706E0054B27
:1020840000221A7702E000BF00E000BF00BF203743
:10209400BD4680BD04030020240300202203002049
:1020A40080B500AF0A4B1B7F002B0FD000F0FEFC65
:1020B4000246074B5B6BD31A092B07D9044B00224A
:1020C4001A77034B1B690133014A136100BF80BDBA
:1020D4000403002080B582B000AF786000F0E6FC15
:1020E4000346164A5360154B1B78002B02D1134B41
:1020F40001221A707B681B78013B032B18D801A2BC
:1021040052F823F021210008192100082921000890
:102114002F210008786800F013F80AE0786800F0CE
:1021240047F806E000F0B0F803E000F0BDF800E086
:1021340000BF00BF0837BD4680BD00BF04030020B8
:1021440080B586B000AF7860184B1B78002B26D181
:102154007B685B78022B24D97B6802337B617B69C3
:102164001B783B737B691B789B08DBB27B737B69B1
:102174001B7803F00303DBB2BB737B695B78002B32
:1021840014BF01230023DBB2FB7300F08FFC034672
:102194003B6107F10C03184600F09AF802E000BF17
:1021A40000E000BF1837BD4680BD00BF000000201E
:1021B40080B586B000AF7860314B1B78002B58D1C6
:1021C4007B685B78032B56D90023FB7548E0FB7DC5
:1021D4002C4AD25CFB7D79680B449B7853407B7519
:1021E4000023BB752FE07A7DBB7D22FA03F303F055
:1021F4000103002B24D0FB7D7A6813449B781A4694
:10220400BB7D42FA03F303F00103002B14BF012347
:1022140000233B75FB7D9B00DAB2BB7D1344DBB22C
:102224003B73FB7D7B73BB7DBB733B7DFB7300F01A
:102234003DFC03463B6107F10C03184600F048F8E7
:10224400BB7D0133BB75BB7D032BCCD9FA7DFB7DF4
:1022540079680A4491780B4AD154FB7D0133FB75AC
:10226400FB7D032B08D87B685B78FA7D9A42AED35A
:1022740002E000BF00E000BF1837BD4680BD00BFCC
:10228400000000203C07002080B500AF054B1B7800
:10229400012B05D1002200210420FFF785FC00E07A
:1022A40000BF80BD0000002080B400AF064B1B7847
:1022B400002B03D1054B01221A7000E000BFBD467C
:1022C4005DF8047B704700BF000000200403002079
:1022D40080B483B000AF78601C4B1B78DBB20F2B4B
:1022E40010D91B4B1B78DBB20133DBB203F00F03B5
:1022F400DAB2174B1A70154B1B78DBB2013BDAB21A
:10230400124B1A70134B1B78DBB2134A7968DB004B
:1023140013440A4692E8030083E803000D4B1B783C
:10232400DBB20133DBB203F00F03DAB2094B1A70EC
:10233400064B1B78DBB20133DAB2044B1A7000BFD0
:102344000C37BD465DF8047B704700BF3A07002098
:102354003807002039070020B806002080B582B075
:1023640000AF00F0A3FB7860084B9B687A68D31A2F
:10237400312B07D9054A7B68936000220021032092
:10238400FFF712FC00BF0837BD4680BD04030020E0
:1023940080B500AF084B1B78012B0AD100F086FBF7
:1023A4000246054B5B68D31A642B02D9024B002208
:1023B4001A7000BF80BD00BF0403002080B500AFC9
:1023C400064B1B78012B03D10020FEF7C7FD02E06A
:1023D4000120FEF7C3FD00BF80BD00BF0403002041
:1023E40080B483B000AF0B4BDB6B1B685B68FB8076
:1023F400FB88C3F500735A42C3F30803C2F308020F
:1024040058BF53429BB218460C37BD465DF8047B57
:10241400704700BFD007002080B582B000AF78605D
:102424007B681B68044A934201D1FFF79DFB00BF00
:102434000837BD4680BD00BF0010014080B400AF26
:1024440000BFBD465DF8047B7047000080B586B0D0
:1024540000AF78607B681B681E4A934235D1002325
:102464007B617B681B681B687B617B681B685B689E
:102474007B617B6900233B617B681B681B683B6154
:102484007B681B685B683B613B690023FB607B687E
:102494001B681B68FB607B681B685B68FB60FB68F0
:1024A4000D4B00221A770C4B0022A3F838227868CF
:1024B40003F0EBFD4FF400720849786803F0C0FDA7
:1024C400054B1B690133044A136100BF1837BD462D
:1024D40080BD00BF00100140040300203C03002025
:1024E40080B483B000AF00237B60104B5B6C0F4A59
:1024F40043F4804353640D4B5B6C03F480437B6073
:102504007B6800233B60094B1B6C084A43F08053F3
:102514001364064B1B6C03F080533B603B6800BFA5
:102524000C37BD465DF8047B704700BF003802409D
:1025340080B58EB000AF78600023FB620023BB62DD
:102544000023FB60334B1B6C324A43F008031364D3
:10255400304B1B6C03F00803FB60FB6807F11002AF
:1025640007F114031146184603F038F83B6AFB627E
:10257400FB6A002B03D103F009F8786304E003F04D
:1025840005F803465B007B637B6B234AA2FB0323B2
:102594009B0C013BBB62214B214A1A601F4B40F24A
:1025A400E732DA601D4ABB6A53601C4B00221A6191
:1025B4001A4B00229A60194B00229A61174803F0C3
:1025C4003FF8034687F8333097F83330002B1BD19C
:1025D400124803F085F8034687F8333097F8333010
:1025E400002B11D1322000F065FB7B680F2B08D83B
:1025F40000227968322000F041FB0A4A7B681360AC
:1026040002E0012387F8333097F83330184638371F
:10261400BD4680BD0038024083DE1B4340070020D6
:10262400000C00400800002080B400AF00BFFDE7AC
:1026340080B400AF00BFFDE780B400AF00BFFDE78A
:1026440080B400AF00BFFDE780B400AF00BFFDE77A
:1026540080B400AF00BFBD465DF8047B704780B412
:1026640000AF00BFBD465DF8047B704780B400AF87
:1026740000BFBD465DF8047B704780B400AF00BF67
:10268400BD465DF8047B704780B500AF024803F097
:1026940089F800BF80BD00BF8807002080B500AF67
:1026A4000A4B1B681B6803F01003102B08D1074B5F
:1026B4001B68DB6803F01003002B01D0FFF7BEFE9C
:1026C400024803F061FD00BF80BD00BFD0070020B9
:1026D40080B500AF024803F065F800BF80BD00BFBD
:1026E4004007002080B500AF024800F089FC00BF1D
:1026F40080BD00BF1808002080B500AF024801F07B
:102704001EFA00BF80BD00BF280E002080B500AFB8
:10271400024800F075FC00BF80BD00BF78080020AF
:1027240080B400AF064BD3F88830054A43F47003F5
:10273400C2F8883000BFBD465DF8047B704700BF17
:1027440000ED00E080B586B000AF07F10803002279
:102754001A605A609A60DA603B4600221A605A6036
:102764001D4B4FF080421A601B4B53225A601A4B88
:1027740000229A60184B40F2E732DA60164B0022CE
:102784001A61154B80229A61134802F059FF0346DF
:10279400002B01D0FEF73AFE4FF48053BB6007F1E3
:1027A400080319460C4803F0EDF80346002B01D04A
:1027B400FEF72CFE00233B6000237B603B4619465A
:1027C400054803F0EFFA0346002B01D0FEF71EFE86
:1027D40000BF1837BD4680BD8807002080B584B08F
:1027E40000AF78607B681B68B3F1804F15D100237C
:1027F400FB600C4B1B6C0B4A43F001031364094B45
:102804001B6C03F00103FB60FB68002201211C2008
:1028140000F034FA1C2000F04DFA00BF1037BD461A
:1028240080BD00BF0038024080B500AF104B114A94
:102834001A600F4B104A5A600D4B00229A600C4BE1
:102844000022DA600A4B00221A61094B0C225A61F9
:10285400074B00229A61064B0022DA61044803F018
:1028640023FB0346002B01D0FEF7D0FD00BF80BD43
:10287400D00700200010014040420F0080B58AB00C
:1028840000AF786007F1140300221A605A609A605E
:10289400DA601A617B681B684D4A934240F0948069
:1028A40000233B614B4B5B6C4A4A43F01003536477
:1028B400484B5B6C03F010033B613B690023FB60F6
:1028C400444B1B6B434A43F001031363414B1B6BA3
:1028D40003F00103FB60FB684FF4C0637B610223D8
:1028E400BB610023FB6103233B6207237B6207F187
:1028F40014031946384800F0EDFD384B384A1A6085
:10290400364B4FF000625A60344B00229A60334BCE
:102914000022DA60314B4FF480621A612F4B00229F
:102924005A612E4B00229A612C4B4FF48072DA616B
:102934002A4B4FF400321A62284B00225A6227486D
:1029440000F0C6F90346002B01D0FEF75FFD7B685B
:10295400224ADA63214A7B689363224B224A1A6033
:10296400204B4FF000625A601E4B40229A601D4B70
:102974000022DA601B4B4FF480621A61194B00226B
:102984005A61184B00229A61164B0022DA61154BEA
:102994004FF400321A62134B00225A62114800F0BD
:1029A40097F90346002B01D0FEF730FD7B680D4AF2
:1029B4009A630C4A7B68936300220221252000F06D
:1029C4005DF9252000F076F900BF2837BD4680BDAB
:1029D40000100140003802400000024018080020A6
:1029E4004064024078080020B8640240DFF834D024
:1029F400FFF796FE0C480D490D4A002302E0D45817
:102A0400C4500433C4188C42F9D30A4A0A4C002334
:102A140001E013600432A242FBD308F0DBF8FEF7B6
:102A2400A7FB704700000120000000208800002060
:102A340018AE0008880000200C130020FEE70000F8
:102A440080B500AF0E4B1B680D4A43F4007313604E
:102A54000B4B1B680A4A43F480631360084B1B68E2
:102A6400074A43F480731360032000F0FCF80F203E
:102A7400FFF75EFDFFF734FD0023184680BD00BF5D
:102A8400003C024080B400AF064B1B781A46064B4C
:102A94001B681344044A136000BFBD465DF8047B01
:102AA400704700BF0C000020D808002080B400AF9D
:102AB400034B1B681846BD465DF8047B704700BF96
:102AC400D808002080B584B000AF7860FFF7EEFF2F
:102AD400B8607B68FB60FB68B3F1FF3F05D00A4B2D
:102AE4001B781A46FB681344FB6000BFFFF7DEFF48
:102AF4000246BB68D31AFA689A42F7D800BF00BFEF
:102B04001037BD4680BD00BF0C00002080B485B0E6
:102B140000AF78607B6803F00703FB600C4BDB6855
:102B2400BB60BA684FF6FF031340BB60FB681A0230
:102B3400BB68134343F0BF6343F40033BB60044AF0
:102B4400BB68D36000BF1437BD465DF8047B704793
:102B540000ED00E080B400AF044BDB681B0A03F017
:102B640007031846BD465DF8047B704700ED00E09E
:102B740080B483B000AF0346FB7197F90730002B94
:102B84000BDBFB7903F01F02074997F907305B0958
:102B9400012000FA02F241F8232000BF0C37BD46A1
:102BA4005DF8047B704700BF00E100E080B483B0AF
:102BB40000AF03463960FB7197F90730002B0ADB3D
:102BC4003B68DAB20C4997F907301201D2B20B44D0
:102BD40083F800230AE03B68DAB20849FB7903F082
:102BE4000F03043B1201D2B20B441A7600BF0C3718
:102BF400BD465DF8047B704700E100E000ED00E0B5
:102C040080B489B000AFF860B9607A60FB6803F003
:102C14000703FB61FB69C3F10703042B28BF0423EB
:102C2400BB61FB690433062B02D9FB69033B00E05B
:102C340000237B614FF0FF32BB6902FA03F3DA43EE
:102C4400BB681A407B699A404FF0FF317B6901FAF7
:102C540003F3D9437B680B40134318462437BD461E
:102C64005DF8047B704780B582B000AF7860786807
:102C7400FFF74CFF00BF0837BD4680BD80B586B066
:102C840000AF0346B9607A60FB7300237B61FFF7F2
:102C940061FF78617A68B9687869FFF7B1FF024625
:102CA40097F90F3011461846FFF780FF00BF183719
:102CB400BD4680BD80B582B000AF0346FB7197F975
:102CC40007301846FFF754FF00BF0837BD4680BDE4
:102CD40080B586B000AF786000237B61FFF7E6FE25
:102CE40038617B68002B01D1012399E07B680222C3
:102CF40083F835207B68002283F834207B681B68C6
:102D04001A687B681B6822F001021A600FE0FFF763
:102D1400CDFE02463B69D31A052B08D97B682022D5
:102D24005A657B68032283F83520032378E07B68A7
:102D34001B681B6803F00103002BE8D17B681B6848
:102D44001B687B617A69384B13407B617B685A68E6
:102D54007B689B681A437B68DB681A437B681B6942
:102D64001A437B685B691A437B689B691A437B68D7
:102D7400DB691A437B681B6A13437A6913437B61DB
:102D84007B685B6A042B07D17B68DA6A7B681B6B00
:102D940013437A6913437B617B681B687A691A6001
:102DA4007B681B685B697B617B6923F007037B613C
:102DB4007B685B6A7A6913437B617B685B6A042B7B
:102DC40017D17B689B6A7A6913437B617B68DB6AF2
:102DD400002B0ED0786800F001FB0346002B08D0CE
:102DE4007B6840225A657B68012283F835200123E1
:102DF40016E07B681B687A695A61786800F0B8FA53
:102E04000346FB607B68DB6D3F229A40FB689A6057
:102E14007B6800225A657B68012283F835200023F1
:102E240018461837BD4680BD3F8010F080B586B087
:102E340000AFF860B9607A603B600023FB75FB6803
:102E44009B6D3B61FB6893F83430012B01D1022365
:102E540040E0FB68012283F83420FB6893F83530A6
:102E6400DBB2012B2FD1FB68022283F83520FB68EB
:102E740000225A653B687A68B968F86800F04AFA33
:102E8400FB68DB6D3F229A403B699A60FB681B68D4
:102E94001A68FB681B6842F016021A60FB681B6C18
:102EA400002B07D0FB681B681A68FB681B6842F09C
:102EB40008021A60FB681B681A68FB681B6842F00A
:102EC40001021A6005E0FB68002283F83420022323
:102ED400FB75FB7D18461837BD4680BD80B584B0B0
:102EE40000AF78607B689B6DFB60FFF7DFFDB86027
:102EF4007B6893F83530DBB2022B08D07B688022E4
:102F04005A657B68002283F83420012352E07B68F1
:102F14001B681A687B681B6822F016021A607B68BB
:102F24001B685A697B681B6822F080025A617B68BF
:102F34001B6C002B03D17B689B6C002B07D07B6838
:102F44001B681A687B681B6822F008021A607B6899
:102F54001B681A687B681B6822F001021A6013E080
:102F6400FFF7A4FD0246BB68D31A052B0CD97B6876
:102F740020225A657B68032283F835207B6800226F
:102F840083F83420032315E07B681B681B6803F077
:102F94000103002BE4D17B68DB6D3F229A40FB6880
:102FA4009A607B68012283F835207B68002283F8CD
:102FB4003420002318461037BD4680BD80B483B04A
:102FC40000AF78607B6893F83530DBB2022B04D015
:102FD4007B6880225A6501230CE07B68052283F814
:102FE40035207B681B681A687B681B6822F0010225
:102FF4001A60002318460C37BD465DF8047B704701
:1030040080B586B000AF78600023BB608E4B1B6830
:103014008E4AA2FB03239B0A7B617B689B6D3B6109
:103024003B691B68FB607B68DB6D08229A40FB6888
:103034001340002B1AD07B681B681B6803F0040341
:10304400002B13D07B681B681A687B681B6822F00E
:1030540004021A607B68DB6D08229A403B699A601F
:103064007B685B6D43F001027B685A657B68DB6DAE
:1030740001229A40FB681340002B12D07B681B6826
:103084005B6903F08003002B0BD07B68DB6D0122AE
:103094009A403B699A607B685B6D43F002027B68EF
:1030A4005A657B68DB6D04229A40FB681340002B51
:1030B40012D07B681B681B6803F00203002B0BD043
:1030C4007B68DB6D04229A403B699A607B685B6D88
:1030D40043F004027B685A657B68DB6D10229A40DA
:1030E400FB681340002B43D07B681B681B6803F00C
:1030F4000803002B3CD07B68DB6D10229A403B69AF
:103104009A607B681B681B6803F48023002B18D02B
:103114007B681B681B6803F40023002B08D17B68C1
:103124001B6C002B24D07B681B6C786898471FE0CD
:103134007B689B6C002B1BD07B689B6C78689847E2
:1031440016E07B681B681B6803F48073002B07D1AF
:103154007B681B681A687B681B6822F008021A6087
:103164007B681B6C002B03D07B681B6C78689847CA
:103174007B68DB6D20229A40FB681340002B00F033
:103184008F807B681B681B6803F01003002B00F022
:1031940087807B68DB6D20229A403B699A607B685C
:1031A40093F83530DBB2052B36D17B681B681A687F
:1031B4007B681B6822F016021A607B681B685A69D8
:1031C4007B681B6822F080025A617B681B6C002BB1
:1031D40003D17B689B6C002B07D07B681B681A6843
:1031E4007B681B6822F008021A607B68DB6D3F2253
:1031F4009A403B699A607B68012283F835207B689A
:10320400002283F834207B681B6D002B7ED07B6802
:103214001B6D7868984779E07B681B681B6803F42A
:103224008023002B1DD07B681B681B6803F40023DC
:10323400002B0DD17B685B6C002B31D07B685B6C01
:10324400786898472CE000BF04000020B5814E1B2D
:103254007B68DB6B002B23D07B68DB6B786898473B
:103264001EE07B681B681B6803F48073002B0FD17E
:103274007B681B681A687B681B6822F010021A605E
:103284007B68012283F835207B68002283F8342090
:103294007B68DB6B002B03D07B68DB6B786898471B
:1032A4007B685B6D002B32D07B685B6D03F00103A0
:1032B400002B22D07B68052283F835207B681B68AD
:1032C4001A687B681B6822F001021A60BB6801332C
:1032D400BB607A699A4207D37B681B681B6803F05A
:1032E4000103002BF2D100E000BF7B68012283F8C8
:1032F40035207B68002283F834207B68DB6C002B4C
:1033040005D07B68DB6C7868984700E000BF18370D
:10331400BD4680BD80B485B000AFF860B9607A6006
:103324003B60FB681B681A68FB681B6822F48022F8
:103334001A60FB681B683A685A60FB689B68402BFC
:1033440008D1FB681B687A689A60FB681B68BA68D6
:10335400DA6007E0FB681B68BA689A60FB681B6860
:103364007A68DA6000BF1437BD465DF8047B7047A5
:1033740080B485B000AF78607B681B68DBB2103B1B
:10338400144AA2FB03231B09FB60134AFB68134482
:103394001B781A467B68DA65FB68032B09D97B68BE
:1033A4001B6823F47F7323F003031A1D7B689A655B
:1033B40007E07B681B6823F47F7323F003037A68B8
:1033C40093657B689B6D18461437BD465DF8047B96
:1033D400704700BFABAAAAAA54AD000880B485B058
:1033E40000AF78600023FB737B689B6ABB607B68DB
:1033F4009B69002B1FD1BB68032B56D801A252F83E
:1034040023F000BF193400082B34000819340008D5
:10341400AF3400087B68DB6A03F08073002B46D06E
:103424000123FB7343E07B68DB6AB3F1C07F40D1C7
:103434000123FB733DE07B689B69B3F5005F21D1F9
:10344400BB68032B37D801A252F823F0613400087B
:103454006734000861340008793400080123FB73E1
:1034640030E07B68DB6A03F08073002B25D00123F6
:10347400FB7322E07B68DB6AB3F1C07F1FD10123B9
:10348400FB731CE0BB68022B03D9BB68032B03D07E
:1034940018E00123FB7315E07B68DB6A03F080739B
:1034A400002B0ED00123FB730BE000BF0AE000BF2A
:1034B40008E000BF06E000BF04E000BF02E000BF78
:1034C40000E000BFFB7B18461437BD465DF8047B63
:1034D400704700BF80B489B000AF786039600023C2
:1034E4007B6100233B610023BB610023FB6159E145
:1034F4000122FB6902FA03F37B613B681B687A696A
:1035040013403B613A697B699A4240F048813B68C9
:103514005B6803F00303012B05D03B685B6803F091
:103524000303022B30D17B689B68BB61FB695B00A2
:10353400032202FA03F3DB43BA691340BB613B681D
:10354400DA68FB695B0002FA03F3BA691343BB61EF
:103554007B68BA699A607B685B68BB610122FB691E
:1035640002FA03F3DB43BA691340BB613B685B684F
:103574001B0903F00102FB6902FA03F3BA6913435E
:10358400BB617B68BA695A603B685B6803F00303FC
:10359400032B17D07B68DB68BB61FB695B000322EC
:1035A40002FA03F3DB43BA691340BB613B689A68D0
:1035B400FB695B0002FA03F3BA691343BB617B68DE
:1035C400BA69DA603B685B6803F00303022B23D11A
:1035D400FB69DA087B68083253F82230BB61FB6967
:1035E40003F007039B000F2202FA03F3DB43BA69DB
:1035F4001340BB613B681A69FB6903F007039B0036
:1036040002FA03F3BA691343BB61FB69DA087B6806
:103614000832B96943F822107B681B68BB61FB69F7
:103624005B00032202FA03F3DB43BA691340BB6174
:103634003B685B6803F00302FB695B0002FA03F377
:10364400BA691343BB617B68BA691A603B685B68FB
:1036540003F44033002B00F0A2800023FB60574B9F
:103664005B6C564A43F480435364544B5B6C03F4E1
:103674008043FB60FB68524AFB699B08023352F8A3
:103684002330BB61FB6903F003039B000F2202FAA2
:1036940003F3DB43BA691340BB617B68494A934235
:1036A40019D07B68484A934213D07B68474A9342B7
:1036B4000DD07B68464A934207D07B68454A9342C3
:1036C40001D1042308E0072306E0032304E00223D6
:1036D40002E0012300E00023FA6902F003029200F1
:1036E4009340BA691343BB613549FB699B080233B4
:1036F400BA6941F82320384B9B68BB613B69DB43C3
:10370400BA691340BB613B685B6803F48013002B08
:1037140003D0BA693B691343BB612F4ABB69936009
:103724002D4BDB68BB613B69DB43BA691340BB616A
:103734003B685B6803F40013002B03D0BA693B6950
:103744001343BB61244ABB69D360234B5B68BB61F1
:103754003B69DB43BA691340BB613B685B6803F4B4
:103764000033002B03D0BA693B691343BB611A4A87
:10377400BB695360184B1B68BB613B69DB43BA6987
:103784001340BB613B685B6803F48033002B03D0B8
:10379400BA693B691343BB610F4ABB691360FB6998
:1037A4000133FB61FB690F2B7FF6A2AE00BF00BFA4
:1037B4002437BD465DF8047B704700BF00380240E3
:1037C40000380140000002400004024000080240AA
:1037D400000C024000100240003C014080B483B061
:1037E40000AF78600B467B8013467B707B78002BA0
:1037F40003D07A887B689A6103E07B881A047B682B
:103804009A6100BF0C37BD465DF8047B704780B5F4
:1038140084B000AF78607B68002B01D1012336E0CF
:103824007B681B684CF6CC421A607B681B6845F2C7
:1038340055521A607B681B687A6852685A607B68C4
:103844001B687A6892689A60FFF730F9F86011E0B3
:10385400FFF72CF90246FB68D31A41F601029342A2
:1038640008D97B681B68DB6803F00303002B01D0D5
:1038740003230CE07B681B68DB6803F00303002B65
:10388400E6D17B681B684AF6AA221A600023184610
:103894001037BD4680BD80B483B000AF78607B68CC
:1038A4001B684AF6AA221A60002318460C37BD4644
:1038B4005DF8047B704780B586B002AF78607B68A2
:1038C400002B01D1012301E17B681B68BB607B688D
:1038D40093F89534DBB2002B06D17B68002283F881
:1038E4009424786806F078FE7B68032283F8952494
:1038F400BB68B3F1A04F02D17B6800229A717B6848
:103904001B68184603F061FE7B6818687B681A7CA4
:103914008DF8002004330ECB03F040FD0346002B4A
:1039240005D07B68022283F895240123CEE07B68CE
:103934001B680021184603F059FE0346002B05D0EE
:103944007B68022283F895240123BFE00023FB73E4
:103954004AE0FA7B79681346DB0013449B000B446E
:10396400153301221A70FA7B79681346DB0013447D
:103974009B000B441433FA7B1A70FA7BFB7B98B2DE
:1039840079681346DB0013449B000B442E33024634
:103994001A80FA7B79681346DB0013449B000B44BE
:1039A400183300221A70FA7B79681346DB0013443B
:1039B4009B000B441C3300221A60FA7B796813467F
:1039C400DB0013449B000B44203300221A60FA7B73
:1039D40079681346DB0013449B000B442433002214
:1039E4001A60FB7B0133FB737B681B79FA7B9A4279
:1039F400AFD30023FB7344E0FA7B79681346DB0002
:103A040013449B000B4403F2552300221A70FA7BE3
:103A140079681346DB0013449B000B4403F51573CC
:103A2400FA7B1A70FA7B79681346DB0013449B0017
:103A34000B4403F5167300221A70FA7B7968134657
:103A4400DB0013449B000B4403F5177300221A6038
:103A5400FA7B79681346DB0013449B000B4403F59F
:103A6400187300221A60FA7B79681346DB0013444A
:103A74009B000B4403F5197300221A60FB7B01338E
:103A8400FB737B681B79FA7B9A42B5D37B68186811
:103A94007B681A7C8DF8002004330ECB03F0F2FD12
:103AA4000346002B05D07B68022283F8952401236A
:103AB4000CE07B6800225A747B68012283F8952409
:103AC4007B681B68184604F03CFE00231846103738
:103AD400BD4680BD80B584B000AF78607B681B684C
:103AE400FB607B6893F89434012B01D1022322E01C
:103AF4007B68012283F89424FB68DB6803F04003AD
:103B0400002B09D07B685B7B012B05D1FB689B6B89
:103B140043F48032FB689A637B681B68184603F0A1
:103B240043FD7B681B68184604F0EAFD7B680022AD
:103B340083F89424002318461037BD4680BD90B501
:103B44008DB000AF78607B681B683B623B6AFB61A9
:103B54007B681B68184604F0A8FE0346002B40F05F
:103B64008C847B681B68184604F00CFE0346002B0B
:103B740000F08284FB6903F500639B681B0AC3F3AE
:103B84000D027B68C3F8D4247B681B68184604F0D4
:103B9400F9FD034603F00203022B07D17B681B687F
:103BA4005A697B681B6802F002025A617B681B68D1
:103BB400184604F0E7FD034603F01003102B61D10F
:103BC4007B681B689A697B681B6822F010029A6103
:103BD4003B6A1B6ABB61BB6903F00F021346DB003F
:103BE40013449B0003F514737A68134404337B6114
:103BF400BB6903F4F013B3F5802F24D1BA6947F6F7
:103C0400F0731340002B35D07B69D968BB691B095D
:103C14009BB2C3F30A039BB21A46386A04F01EFC33
:103C24007B69DA68BB691B09C3F30A031A447B691D
:103C3400DA607B695A69BB691B09C3F30A031A4436
:103C44007B695A6116E0BB6903F4F013B3F5402FA6
:103C540010D17B6803F29C4308221946386A04F0A9
:103C6400FDFB7B695A69BB691B09C3F30A031A4448
:103C74007B695A617B681B689A697B681B6842F0A0
:103C840010029A617B681B68184604F07BFD0346AA
:103C940003F40023B3F5002F40F0A78000237B62D8
:103CA4007B681B68184604F080FDB86299E0BB6A23
:103CB40003F00103002B00F08E807B681B687A6A96
:103CC400D2B21146184604F0A4FD38613B6903F0F2
:103CD4000103002B0CD07B6A5A01FB69134403F5E2
:103CE40030631A4601239360796A786800F08CFE89
:103CF4003B6903F00803002B0CD07B6A5A01FB6973
:103D0400134403F530631A4608239360796A78688C
:103D140000F062FF3B6903F01003002B08D07B6ABC
:103D24005A01FB69134403F530631A461023936068
:103D34003B6903F00203002B30D03B6A5B6903F05C
:103D44008003802B09D1FB6903F500635B68FA6982
:103D540002F5006243F4806353607A6A1346DB0021
:103D640013449B0003F514737A68134404337B6192
:103D74007B69DB78012B08D17B690022DA707B6ACE
:103D8400DBB21946786806F023FD7B6A5A01FB69A9
:103D9400134403F530631A46022393603B6903F02E
:103DA4002003002B08D07B6A5A01FB69134403F5F6
:103DB40030631A46202393603B6903F40053002BBD
:103DC40009D07B6A5A01FB69134403F530631A4630
:103DD4004FF4005393607B6A01337B62BB6A5B08D8
:103DE400BB62BB6A002B7FF462AF7B681B6818461A
:103DF40004F0C8FC034603F48023B3F5802F40F09D
:103E0400DB807B681B68184604F0E9FCB862002379
:103E14007B62CDE0BB6A03F00103002B00F0C2809B
:103E24007B681B687A6AD2B21146184604F00FFD0B
:103E340038613B6903F00103002B57D07B6A03F020
:103E44000F03012202FA03F3FB60FB6903F500632D
:103E54005A6BFB68DB43F96901F5006113404B635E
:103E64007B6A5A01FB69134403F510631A46012364
:103E740093607B689B79012B32D179687A6A134607
:103E8400DB0013449B000B442033196878687A6A7A
:103E94001346DB0013449B0003441C331B68194482
:103EA40078687A6A1346DB0013449B00034420338A
:103EB40019607B6A002B13D179687A6A1346DB0098
:103EC40013449B000B4424331B68002B08D17B68EC
:103ED40018687B6803F29C431A46012104F016FD1E
:103EE4007B6ADBB21946786806F0F7FB3B6903F09E
:103EF4000803002B08D07B6A5A01FB69134403F5BD
:103F040010631A46082393603B6903F01003002BE7
:103F140008D07B6A5A01FB69134403F510631A46FF
:103F2400102393603B6903F04003002B08D07B6AA5
:103F34005A01FB69134403F510631A464023936046
:103F44003B6903F00203002B23D0796A386A03F03B
:103F5400FDFC7A6A1346DB0013449B0010337A6835
:103F6400134404337B617B69DB78012B08D17B69C3
:103F74000022DA707B6ADBB21946786806F03AFCF4
:103F84007B6A5A01FB69134403F510631A46022342
:103F940093603B6903F08003002B03D0796A78684F
:103FA40000F0A5FC7B6A01337B62BB6A5B08BB62E1
:103FB400BB6A002B7FF42EAF7B681B68184604F0A5
:103FC400E1FB034603F00043B3F1004F22D1FB6948
:103FD40003F500635B68FA6902F5006223F00103EC
:103FE40053607B6893F8CC34012B08D17B680022A2
:103FF40083F8CC240021786800F08CFE02E0786815
:1040040006F0D8FB7B681B685A697B681B6802F062
:1040140000425A617B681B68184604F0B3FB0346F0
:1040240003F40063B3F5006F12D1FB6903F5006379
:104034009B6803F00103012B02D1786806F094FB1E
:104044007B681B685A697B681B6802F400625A61CA
:104054007B681B68184604F095FB034603F4805301
:10406400B3F5805F40F0B780FB6903F500635B68DC
:10407400FA6902F5006223F0010353607B681B6850
:104084001021184603F062FC0023FB6246E0FB6A41
:104094005A01FB69134403F510631A464FF67F3344
:1040A4009360FB6A5A01FB69134403F510631B68B0
:1040B400FA6A5101FA690A4402F5106223F4001302
:1040C4001360FB6A5A01FB69134403F530631A4613
:1040D4004FF67F339360FB6A5A01FB69134403F57F
:1040E40030631B68FA6A5101FA690A4402F53062C6
:1040F40023F400131360FB6A5A01FB69134403F5AC
:1041040030631B68FA6A5101FA690A4402F53062A5
:1041140043F000631360FB6A0133FB627B681B7925
:104124001A46FB6A9342B2D3FB6903F50063DB6969
:10413400FA6902F5006243F00113D3617B68DB7B0B
:10414400002B16D0FB6903F50063D3F88430FA69B9
:1041540002F5006243F00B03C2F88430FB6903F5F7
:1041640000635B6CFA6902F5006243F00B0353646D
:1041740015E0FB6903F500635B69FA6902F5006207
:1041840043F4005343F02B035361FB6903F50063CD
:104194001B69FA6902F5006243F00B031361FB69C2
:1041A40003F500631B68FA6902F5006223F4FE63F9
:1041B40013607B6818687B6899797B6803F29C4379
:1041C4001A4604F0A3FB7B681B685A697B681B686A
:1041D40002F480525A617B681B68184604F0D2FAD4
:1041E400034603F40053B3F5005F23D17B681B68D7
:1041F400184604F068FB7B681B68184603F01FFC34
:1042040003461A467B68DA717B681C6801F0B2F9D0
:1042140001467B68DB791A46204603F023F9786867
:1042240006F083FA7B681B685A697B681B6802F492
:1042340000525A617B681B68184604F0A3FA0346CF
:1042440003F00803082B0AD1786806F060FA7B684B
:104254001B685A697B681B6802F008025A617B6814
:104264001B68184604F08EFA034603F08003802B83
:1042740023D13B6A9B6923F080023B6A9A61012344
:104284007B6214E079687A6A1346DB0013449B006E
:104294000B4403F257231B78012B05D17B6ADBB255
:1042A4001946786800F0F2FA7B6A01337B627B6816
:1042B4001B791A467B6A9342E4D37B681B681846D1
:1042C40004F060FA034603F48013B3F5801F3CD175
:1042D40001237B622BE07B6A5A01FB69134403F5DB
:1042E40010631B68BB6179687A6A1346DB00134468
:1042F4009B000B4418331B78012B15D1BB69002B91
:1043040012DA79687A6A1346DB0013449B000B4483
:10431400173301221A707B6ADBB263F07F03DBB2CE
:104324001946786800F0B2FA7B6A01337B627B68D5
:104334001B791A467B6A9342CDD37B681B685A6902
:104344007B681B6802F480125A617B681B681846FC
:1043540004F018FA034603F40013B3F5001F56D112
:1043640001237B6245E07B6A5A01FB69134403F530
:1043740030631B68BB6179687A6A1346DB001344B7
:104384009B000B4403F516731B78012B2ED1BB69DC
:10439400002B2BDABB691A0C7B68D3F8D434534056
:1043A40003F00103002B21D179687A6A1346DB00FC
:1043B40013449B000B4403F2572301221A703B6AF7
:1043C4009B6943F080023B6A9A613B6A5B6903F034
:1043D4008003002B0AD1FB6903F500635B68FA696B
:1043E40002F5006243F40073536008E07B6A013312
:1043F4007B627B681B791A467B6A9342B3D37B68E2
:104404001B685A697B681B6802F400125A617B6856
:104414001B68184604F0B6F9034603F08043B3F171
:10442400804F0AD1786806F0F7F97B681B685A69EF
:104434007B681B6802F080425A617B681B681846DF
:1044440004F0A0F9034603F00403042B15D17B68A0
:104454001B685B68BB61BB6903F00403002B02D0DB
:10446400786806F0E7F97B681B6859687B681B6805
:10447400BA690A435A6000E000BF3437BD4690BDB4
:1044840080B582B000AF78600B46FB707B6893F810
:104494009434012B01D1022312E07B68012283F8BA
:1044A40094247B68FA785A747B681B68FA781146FE
:1044B400184604F0FFF87B68002283F89424002354
:1044C40018460837BD4680BD80B584B000AF78601B
:1044D400084611461A460346FB700B463B801346BA
:1044E400BB700023FB7297F90330002B0FDAFB78C3
:1044F40003F00F021346DB0013449B0010337A6869
:1045040013440433FB60FB6801225A700FE0FB780C
:1045140003F00F021346DB0013449B0003F51473EE
:104524007A6813440433FB60FB6800225A70FB78FA
:1045340003F00F03DAB2FB681A703B88C3F30A0274
:10454400FB689A60FB68BA781A71FB685B78002B89
:1045540004D0FB681B781A46FB685A83BB78022B8D
:1045640002D1FB6800225A717B6893F89434012BC2
:1045740001D102230EE07B68012283F894247B6836
:104584001B68F968184603F07FFA7B68002283F8F9
:104594009424FB7A18461037BD4680BD80B584B09C
:1045A40000AF78600B46FB7097F90330002B0FDAED
:1045B400FB7803F00F021346DB0013449B00103317
:1045C4007A6813440433FB60FB6801225A700FE0DD
:1045D400FB7803F00F021346DB0013449B0003F542
:1045E40014737A6813440433FB60FB6800225A7026
:1045F400FB7803F00F03DAB2FB681A707B6893F858
:104604009434012B01D102230EE07B68012283F84C
:1046140094247B681B68F968184603F0BDFA7B682C
:10462400002283F89424002318461037BD4680BD29
:1046340080B586B000AFF8607A603B600B46FB72D1
:10464400FB7A03F00F021346DB0013449B0003F5CF
:104654001473FA68134404337B617B697A68DA6003
:104664007B693A681A617B6900225A617B6900227E
:104674005A70FB7A03F00F03DAB27B691A70FB6895
:104684009B79012B02D17A687B69DA61FB6818682F
:10469400FB689B791A46796903F05AFB0023184694
:1046A4001837BD4680BD80B586B000AFF8607A602B
:1046B4003B600B46FB72FB7A03F00F021346DB00F0
:1046C40013449B001033FA68134404337B617B6901
:1046D4007A68DA607B693A681A617B6900225A61F8
:1046E4007B6901225A70FB7A03F00F03DAB27B690B
:1046F4001A70FB689B79012B02D17A687B69DA61B5
:10470400FB681868FB689B791A46796903F020FBFB
:10471400002318461837BD4680BD80B584B000AF6D
:1047240078600B46FB70FB7803F00F037A6812790C
:10473400934201D901234FE097F90330002B0FDA9C
:10474400FB7803F00F021346DB0013449B00103385
:104754007A6813440433FB60FB6801225A700DE04D
:10476400FA781346DB0013449B0003F514737A684C
:1047740013440433FB60FB6800225A70FB68012277
:104784009A70FB7803F00F03DAB2FB681A707B6847
:1047940093F89434012B01D102231DE07B6801229C
:1047A40083F894247B681B68F968184603F0AEFE0E
:1047B400FB7803F00F03002B09D17B6818687B6832
:1047C40099797B6803F29C431A4604F09FF87B684E
:1047D400002283F89424002318461037BD4680BD78
:1047E40080B584B000AF78600B46FB70FB7803F0B3
:1047F4000F037A681279934201D9012342E097F9B1
:104804000330002B0FDAFB7803F00F021346DB00B2
:1048140013449B0010337A6813440433FB60FB6831
:1048240001225A700FE0FB7803F00F021346DB00FD
:1048340013449B0003F514737A6813440433FB6038
:10484400FB6800225A70FB6800229A70FB7803F020
:104854000F03DAB2FB681A707B6893F89434012B67
:1048640001D102230EE07B68012283F894247B6843
:104874001B68F968184603F0B7FE7B68002283F8CA
:104884009424002318461037BD4680BD80B584B0FB
:1048940000AF78600B46FB7097F90330002B0CDAFD
:1048A400FB7803F00F021346DB0013449B00103324
:1048B4007A6813440433FB600CE0FB7803F00F02C6
:1048C4001346DB0013449B0003F514737A68134406
:1048D4000433FB607B681B68F968184603F0D6FC58
:1048E4000346FB72FB7A18461037BD4680BD80B57F
:1048F4008AB002AF786039607B681B687B617B6932
:104904003B613A681346DB0013449B0010337A681A
:1049140013440433FB60FB685A69FB681B699A42C1
:1049240001D901236BE0FB681A69FB685B69D31A40
:10493400FB61FB689B68FA699A4202D9FB689B6831
:10494400FB61FB6903339B08BB612AE0FB681A69BE
:10495400FB685B69D31AFB61FB689B68FA699A423E
:1049640002D9FB689B68FB61FB6903339B08BB614D
:10497400FB68D9683B68DAB2FB6998B27B689B79BB
:1049840000930346786903F02BFDFB68DA68FB6942
:104994001A44FB68DA60FB685A69FB691A44FB68CD
:1049A4005A613B685A013B69134403F510639B69E0
:1049B4009BB2BA699A4209D8FB685A69FB681B69B9
:1049C4009A4203D2FB681B69002BBFD1FB681A69AA
:1049D400FB685B699A4211D83B6803F00F0301221C
:1049E40002FA03F3BB603B6903F500635A6BBB68CF
:1049F400DB43396901F5006113404B63002318461A
:104A04002037BD4680BD000080B588B000AF786017
:104A140039607B681B68FB61FB69BB61FB693C33E4
:104A240004331B687B613B685A01BB69134403F57B
:104A340030639B683B617B689B79012B7BD13B692D
:104A440003F00803002B15D07B69614A934240F2BE
:104A5400B9803B6903F40043002B00F0B3803B684A
:104A64005A01BB69134403F530631A464FF40043FB
:104A74009360A7E03B6903F02003002B09D03B6857
:104A84005A01BB69134403F530631A46202393602B
:104A940098E03B6903F02803002B40F093807B6986
:104AA4004B4A93420FD93B6903F40043002B0AD0CD
:104AB4003B685A01BB69134403F530631A464FF44B
:104AC400004393607EE03A681346DB0013449B0086
:104AD40003F514737A6813440433FB60FB681A6AA1
:104AE4003B685901BB690B4403F530631B69C3F38D
:104AF4001203D21AFB685A613B68002B14D1FB687D
:104B04001B69002B09D17B6818687B6803F29C43FE
:104B14001A46012103F0FAFE06E0FB68DA68FB6836
:104B24005B691A44FB68DA603B68DBB21946786853
:104B340005F0B8FD46E07B69264A934224D13B69DF
:104B440003F40043002B0AD03B685A01BB691344A9
:104B540003F530631A464FF40043936032E03B6937
:104B640003F02003002B08D03B685A01BB691344AF
:104B740003F530631A46202393603B68DBB2194681
:104B8400786805F08FFD1DE03B68002B14D179682F
:104B94003A681346DB0013449B000B4403F5197376
:104BA4001B68002B08D17B6818687B6803F29C4360
:104BB4001A46002103F0AAFE3B68DBB21946786866
:104BC40005F070FD002318462037BD4680BD00BFA8
:104BD4000A30544F0A31544F80B586B000AF786024
:104BE40039607B681B687B617B693B617B693C3313
:104BF40004331B68FB603B685A013B69134403F5AB
:104C040030639B68BB60FB68154A93420ED9BB684E
:104C140003F40043002B09D03B685A013B69134459
:104C240003F530631A464FF400439360786805F047
:104C340027FDFB680A4A93420CD97B689B79012BB8
:104C440008D17B6818687B6803F29C431A460121EB
:104C540003F05CFE002318461837BD4680BD00BF34
:104C64000A30544F80B485B000AF78600B46FB70B7
:104C740013463B807B681B685B6ABB60FB78002B38
:104C840007D13B8819047B681B68BA680A439A6297
:104C940028E07B681B689B6A1B0CBA681344BB60E2
:104CA4000023FB730DE07B681A68FB7B40339B0099
:104CB40013445B681B0CBA681344BB60FB7B013371
:104CC400FB73FA7BFB78013B9A42ECD33B881804D4
:104CD4007B681968FB78013BBA68024340339B0048
:104CE4000B445A60002318461437BD465DF8047B14
:104CF400704780B483B000AF78600B467B807B68DC
:104D04001B687A885A62002318460C37BD465DF842
:104D1400047B704780B483B000AF78600B46FB70AF
:104D240000BF0C37BD465DF8047B704780B586B084
:104D340000AF78607B68002B01D1012367E27B68B8
:104D44001B6803F00103002B75D0884B9B6803F0AC
:104D54000C03042B0CD0854B9B6803F00C03082B2D
:104D640012D1824B5B6803F48003B3F5800F0BD13F
:104D74007E4B1B6803F40033002B5BD07B685B68BD
:104D8400002B57D1012342E27B685B68B3F5803F77
:104D940006D1764B1B68754A43F4803313601DE0DB
:104DA4007B685B68B3F5A02F0CD1704B1B686F4A0E
:104DB40043F4802313606D4B1B686C4A43F48033C7
:104DC40013600BE0694B1B68684A23F4803313605B
:104DD400664B1B68654A23F4802313607B685B6819
:104DE400002B13D0FDF762FE386108E0FDF75EFE8C
:104DF40002463B69D31A642B01D9032307E25B4BB8
:104E04001B6803F40033002BF0D014E0FDF74EFED2
:104E1400386108E0FDF74AFE02463B69D31A642B69
:104E240001D90323F3E1514B1B6803F40033002B36
:104E3400F0D100E000BF7B681B6803F00203002B85
:104E440063D04A4B9B6803F00C03002B0BD0474BF9
:104E54009B6803F00C03082B1CD1444B5B6803F4E0
:104E64008003002B16D1414B1B6803F00203002B77
:104E740005D07B68DB68012B01D00123C7E13B4BE4
:104E84001B6823F0F8027B681B69DB003749134376
:104E94000B603AE07B68DB68002B20D0344B0122A6
:104EA4001A60FDF703FE386108E0FDF7FFFD0246D6
:104EB4003B69D31A022B01D90323A8E12B4B1B68AE
:104EC40003F00203002BF0D0284B1B6823F0F802F8
:104ED4007B681B69DB00254913430B6015E0244BF9
:104EE40000221A60FDF7E2FD386108E0FDF7DEFDFF
:104EF40002463B69D31A022B01D9032387E11B4BDA
:104F04001B6803F00203002BF0D17B681B6803F0DD
:104F14000803002B36D07B685B69002B16D0154B39
:104F240001221A60FDF7C2FD386108E0FDF7BEFDFD
:104F340002463B69D31A022B01D9032367E10B4BC9
:104F44005B6F03F00203002BF0D01BE0094B00223F
:104F54001A60FDF7ABFD38610EE0FDF7A7FD0246D0
:104F64003B69D31A022B07D9032350E100380240CE
:104F740000004742800E4742884B5B6F03F00203F8
:104F8400002BEAD17B681B6803F00403002B00F0BC
:104F940097800023FB75814B1B6C03F08053002B1F
:104FA4000FD10023BB607D4B1B6C7C4A43F08053C4
:104FB40013647A4B1B6C03F08053BB60BB68012302
:104FC400FB75774B1B6803F48073002B18D1744B6B
:104FD4001B68734A43F480731360FDF767FD3861FF
:104FE40008E0FDF763FD02463B69D31A022B01D9A1
:104FF40003230CE16A4B1B6803F48073002BF0D08D
:105004007B689B68012B06D1644B1B6F634A43F09A
:10501400010313671CE07B689B68052B0CD15F4B75
:105024001B6F5E4A43F0040313675C4B1B6F5B4AC0
:1050340043F0010313670BE0584B1B6F574A23F0EF
:1050440001031367554B1B6F544A23F00403136782
:105054007B689B68002B15D0FDF728FD38610AE0BA
:10506400FDF724FD02463B69D31A41F2883293428C
:1050740001D90323CBE0494B1B6F03F00203002B40
:10508400EED014E0FDF712FD38610AE0FDF70EFDE5
:1050940002463B69D31A41F28832934201D9032371
:1050A400B5E03E4B1B6F03F00203002BEED1FB7DFA
:1050B400012B05D1394B1B6C384A23F08053136400
:1050C4007B689B69002B00F0A180344B9B6803F044
:1050D4000C03082B5CD07B689B69022B41D1314BBC
:1050E40000221A60FDF7E2FC386108E0FDF7DEFCFF
:1050F40002463B69D31A022B01D9032387E0274BCD
:105104001B6803F00073002BF0D17B68DA697B68BD
:105114001B6A1A437B685B6A9B011A437B689B6A20
:105124005B08013B1B041A437B68DB6A1B061B49B3
:1051340013434B601B4B01221A60FDF7B7FC386127
:1051440008E0FDF7B3FC02463B69D31A022B01D9F0
:1051540003235CE0114B1B6803F00073002BF0D0B9
:1051640054E0104B00221A60FDF7A0FC386108E0FF
:10517400FDF79CFC02463B69D31A022B01D9032399
:1051840045E0064B1B6803F00073002BF0D13DE0B3
:105194007B689B69012B07D1012338E0003802406A
:1051A40000700040600047421B4B5B68FB607B68FB
:1051B4009B69012B28D0FB6803F480027B68DB69C0
:1051C4009A4221D1FB6803F03F027B681B6A9A4232
:1051D4001AD1FA6847F6C07313407A68526A92018A
:1051E400934211D1FB6803F440327B689B6A5B08ED
:1051F400013B1B049A4207D1FB6803F070627B6891
:10520400DB6A1B069A4201D0012300E00023184602
:105214001837BD4680BD00BF0038024080B584B059
:1052240000AF786039607B68002B01D10123CCE0AA
:10523400684B1B6803F007033A689A420CD9654B24
:105244003A68D2B21A70634B1B6803F007033A68DA
:105254009A4201D00123B8E07B681B6803F0020383
:10526400002B20D07B681B6803F00403002B05D0BF
:10527400594B9B68584A43F4E05393607B681B681E
:1052840003F00803002B05D0534B9B68524A43F4A8
:1052940060439360504B9B6823F0F0027B689B68EB
:1052A4004D4913438B607B681B6803F00103002B9B
:1052B40044D07B685B68012B07D1474B1B6803F420
:1052C4000033002B19D101237FE07B685B68022B3C
:1052D40003D07B685B68032B07D13F4B1B6803F04B
:1052E4000073002B09D101236FE03B4B1B6803F0D3
:1052F4000203002B01D1012367E0374B9B6823F0A5
:1053040003027B685B68344913438B60FDF7CEFB73
:10531400F8600AE0FDF7CAFB0246FB68D31A41F2C3
:105324008832934201D903234FE02B4B9B6803F04F
:105334000C027B685B689B009A42EBD1254B1B688F
:1053440003F007033A689A420CD2224B3A68D2B26D
:105354001A70204B1B6803F007033A689A4201D085
:10536400012332E07B681B6803F00403002B08D0A0
:10537400194B9B6823F4E0527B68DB68164913439E
:105384008B607B681B6803F00803002B09D0124B69
:105394009B6823F460427B681B69DB000E4913435E
:1053A4008B6000F021F802460B4B9B681B0903F04D
:1053B4000F030A49CB5C22FA03F3094A1360094B31
:1053C4001B681846FDF7B4F8002318461037BD468D
:1053D40080BD00BF003C0240003802403CAD0008E4
:1053E40004000020080000202DE9B04F90B000AF69
:1053F40000237B630023FB6300233B630023BB6325
:10540400594B9B6803F00C03082B0DD0082B00F2BA
:10541400A180002B02D0042B03D09BE0534BBB6331
:105424009BE0534BBB6398E04F4B5B6803F03F0337
:105434007B634D4B5B6803F48003002B28D04A4BFD
:105444005B689B0900223B627A623B6AC3F30800F3
:105454000021474B03FB01F2002300FB03F3134439
:10546400434AA0FB0212FA620A46BA62FA6A134479
:10547400FB627B6B0022BB61FA61D7E90623D7E9A3
:105484000A01FAF7A5FE02460B461346FB6353E0F6
:10549400354B5B689B0900223B617A613B69C3F32E
:1054A400080A4FF0000B52465B464FF000004FF0E5
:1054B4000001590141EAD261500102460B46B2EBA8
:1054C4000A0863EB0B094FF000024FF000034FEAA8
:1054D400891343EA98634FEA8812B2EB080463EB3A
:1054E40009054FF000024FF00003EB0043EA547348
:1054F400E20014461D4614EB0A033B6045EB0B0324
:105504007B604FF000024FF00003D7E900452946C5
:105514008B02214643EA915321468A0210461946DA
:105524007B6B0022BB60FA60D7E90223FAF750FED6
:1055340002460B461346FB630B4B5B681B0C03F0E4
:10554400030301335B003B63FA6B3B6BB2FBF3F386
:10555400BB6302E0054BBB6300BFBB6B184640371F
:10556400BD46BDE8B08F00BF003802400024F400FF
:1055740040787D0180B400AF034B1B681846BD46DC
:105584005DF8047B704700BF0400002080B500AFC5
:10559400FFF7F0FF0246054B9B689B0A03F00703E5
:1055A4000349CB5C22FA03F3184680BD003802405D
:1055B4004CAD000880B500AFFFF7DCFF0246054B99
:1055C4009B685B0B03F007030349CB5C22FA03F3EC
:1055D400184680BD003802404CAD000880B483B04A
:1055E40000AF786039607B680F221A60124B9B68A9
:1055F40003F003027B685A600F4B9B6803F0F002D0
:105604007B689A600C4B9B6803F4E0527B68DA6019
:10561400094B9B68DB0803F4E0527B681A61074B73
:105624001B6803F007023B681A6000BF0C37BD46D5
:105634005DF8047B704700BF00380240003C024024
:1056440080B582B000AF78607B68002B01D1012364
:1056540041E07B6893F83D30DBB2002B06D17B68D8
:10566400002283F83C207868FDF7B8F87B680222B2
:1056740083F83D207B681A687B680433194610461A
:1056840000F070FA7B68012283F846207B680122CF
:1056940083F83E207B68012283F83F207B68012247
:1056A40083F840207B68012283F841207B68012233
:1056B40083F842207B68012283F843207B6801221F
:1056C40083F844207B68012283F845207B6801220B
:1056D40083F83D20002318460837BD4680BD0000EE
:1056E40080B485B000AF78607B6893F83D30DBB25E
:1056F400012B01D0012344E07B68022283F83D2082
:105704007B681B68DA687B681B6842F00102DA6018
:105714007B681B681E4A934218D07B681B68B3F1F0
:10572400804F13D07B681B681A4A93420ED07B6863
:105734001B68194A934209D07B681B68174A934235
:1057440004D07B681B68164A934211D17B681B689E
:105754009B6803F00703FB60FB68062B10D07B6893
:105764001B681A687B681B6842F001021A6007E034
:105774007B681B681A687B681B6842F001021A6028
:10578400002318461437BD465DF8047B704700BFFC
:10579400000001400004004000080040000C0040EC
:1057A4000040014080B584B000AF78607B681B681E
:1057B400DB68FB607B681B681B69BB60BB6803F02C
:1057C4000203002B20D0FB6803F00203002B1BD044
:1057D4007B681B686FF002021A617B6801221A77EA
:1057E4007B681B689B6903F00303002B03D0786874
:1057F40000F099F905E0786800F08BF9786800F01A
:105804009CF97B6800221A77BB6803F00403002B21
:1058140020D0FB6803F00403002B1BD07B681B68BB
:105824006FF004021A617B6802221A777B681B6896
:105834009B6903F44073002B03D0786800F073F97C
:1058440005E0786800F065F9786800F076F97B681F
:1058540000221A77BB6803F00803002B20D0FB68F2
:1058640003F00803002B1BD07B681B686FF0080251
:105874001A617B6804221A777B681B68DB6903F072
:105884000303002B03D0786800F04DF905E0786835
:1058940000F03FF9786800F050F97B6800221A772D
:1058A400BB6803F01003002B20D0FB6803F0100347
:1058B400002B1BD07B681B686FF010021A617B6899
:1058C40008221A777B681B68DB6903F44073002B9A
:1058D40003D0786800F027F905E0786800F019F93A
:1058E400786800F02AF97B6800221A77BB6803F015
:1058F4000103002B0CD0FB6803F00103002B07D03D
:105904007B681B686FF001021A617868FBF764FD1D
:10591400BB6803F08003002B0CD0FB6803F080030A
:10592400002B07D07B681B686FF080021A617868CF
:1059340000F0B0FABB6803F04003002B0CD0FB6806
:1059440003F04003002B07D07B681B686FF0400214
:105954001A61786800F0FBF8BB6803F02003002BA1
:105964000CD0FB6803F02003002B07D07B681B6876
:105974006FF020021A61786800F082FA00BF1037D5
:10598400BD4680BD80B584B000AF78603960002327
:10599400FB737B6893F83C30012B01D10223B4E004
:1059A4007B68012283F83C207B68022283F83D2037
:1059B4007B681B689B68BB60BB6823F07703BB6094
:1059C400BB6823F47F43BB607B681B68BA689A603A
:1059D4003B681B68B3F5005F3ED0B3F5005F00F28F
:1059E4008780B3F5805F00F08680B3F5805F7FD851
:1059F400702B1AD0702B7BD8602B50D0602B77D8AB
:105A0400502B3CD0502B73D8402B58D0402B6FD800
:105A1400302B64D0302B6BD8202B60D0202B67D850
:105A2400002B5CD0102B5AD062E07B6818683B686E
:105A340099683B685A683B68DB6800F093F97B68B7
:105A44001B689B68BB60BB6843F07703BB607B68E3
:105A54001B68BA689A604FE07B6818683B6899686D
:105A64003B685A683B68DB6800F07CF97B681B681C
:105A74009A687B681B6842F480429A603CE07B68C9
:105A840018683B6859683B68DB681A4600F0F0F810
:105A94007B681B685021184600F049F92CE07B68AC
:105AA40018683B6859683B68DB681A4600F00FF9D0
:105AB4007B681B686021184600F039F91CE07B689C
:105AC40018683B6859683B68DB681A4600F0D0F8F0
